{
  "contractName": "MenloTokenPresale",
  "abi": [
    {
      "constant": true,
      "inputs": [],
      "name": "endTime",
      "outputs": [
        {
          "name": "",
          "type": "uint256"
        }
      ],
      "payable": false,
      "stateMutability": "view",
      "type": "function"
    },
    {
      "constant": true,
      "inputs": [],
      "name": "cap",
      "outputs": [
        {
          "name": "",
          "type": "uint256"
        }
      ],
      "payable": false,
      "stateMutability": "view",
      "type": "function"
    },
    {
      "constant": true,
      "inputs": [],
      "name": "weiRaised",
      "outputs": [
        {
          "name": "",
          "type": "uint256"
        }
      ],
      "payable": false,
      "stateMutability": "view",
      "type": "function"
    },
    {
      "constant": true,
      "inputs": [],
      "name": "wallet",
      "outputs": [
        {
          "name": "",
          "type": "address"
        }
      ],
      "payable": false,
      "stateMutability": "view",
      "type": "function"
    },
    {
      "constant": true,
      "inputs": [
        {
          "name": "",
          "type": "address"
        }
      ],
      "name": "allocations",
      "outputs": [
        {
          "name": "",
          "type": "uint256"
        }
      ],
      "payable": false,
      "stateMutability": "view",
      "type": "function"
    },
    {
      "constant": true,
      "inputs": [],
      "name": "startTime",
      "outputs": [
        {
          "name": "",
          "type": "uint256"
        }
      ],
      "payable": false,
      "stateMutability": "view",
      "type": "function"
    },
    {
      "constant": true,
      "inputs": [],
      "name": "isFinalized",
      "outputs": [
        {
          "name": "",
          "type": "bool"
        }
      ],
      "payable": false,
      "stateMutability": "view",
      "type": "function"
    },
    {
      "constant": true,
      "inputs": [],
      "name": "owner",
      "outputs": [
        {
          "name": "",
          "type": "address"
        }
      ],
      "payable": false,
      "stateMutability": "view",
      "type": "function"
    },
    {
      "constant": true,
      "inputs": [
        {
          "name": "",
          "type": "address"
        }
      ],
      "name": "whitelist",
      "outputs": [
        {
          "name": "",
          "type": "bool"
        }
      ],
      "payable": false,
      "stateMutability": "view",
      "type": "function"
    },
    {
      "constant": true,
      "inputs": [],
      "name": "tokenTimelock",
      "outputs": [
        {
          "name": "",
          "type": "address"
        }
      ],
      "payable": false,
      "stateMutability": "view",
      "type": "function"
    },
    {
      "constant": false,
      "inputs": [
        {
          "name": "newOwner",
          "type": "address"
        }
      ],
      "name": "transferOwnership",
      "outputs": [],
      "payable": false,
      "stateMutability": "nonpayable",
      "type": "function"
    },
    {
      "constant": true,
      "inputs": [],
      "name": "token",
      "outputs": [
        {
          "name": "",
          "type": "address"
        }
      ],
      "payable": false,
      "stateMutability": "view",
      "type": "function"
    },
    {
      "inputs": [
        {
          "name": "_token",
          "type": "address"
        },
        {
          "name": "_startTime",
          "type": "uint256"
        },
        {
          "name": "_endTime",
          "type": "uint256"
        },
        {
          "name": "_cap",
          "type": "uint256"
        },
        {
          "name": "_wallet",
          "type": "address"
        }
      ],
      "payable": false,
      "stateMutability": "nonpayable",
      "type": "constructor"
    },
    {
      "payable": true,
      "stateMutability": "payable",
      "type": "fallback"
    },
    {
      "anonymous": false,
      "inputs": [
        {
          "indexed": true,
          "name": "purchaser",
          "type": "address"
        },
        {
          "indexed": true,
          "name": "beneficiary",
          "type": "address"
        },
        {
          "indexed": false,
          "name": "value",
          "type": "uint256"
        },
        {
          "indexed": false,
          "name": "amount",
          "type": "uint256"
        }
      ],
      "name": "TokenPurchase",
      "type": "event"
    },
    {
      "anonymous": false,
      "inputs": [
        {
          "indexed": true,
          "name": "beneficiary",
          "type": "address"
        },
        {
          "indexed": false,
          "name": "amount",
          "type": "uint256"
        }
      ],
      "name": "TokenRedeem",
      "type": "event"
    },
    {
      "anonymous": false,
      "inputs": [],
      "name": "Finalized",
      "type": "event"
    },
    {
      "anonymous": false,
      "inputs": [
        {
          "indexed": true,
          "name": "purchaser",
          "type": "address"
        },
        {
          "indexed": true,
          "name": "beneficiary",
          "type": "address"
        },
        {
          "indexed": false,
          "name": "amount",
          "type": "uint256"
        }
      ],
      "name": "Refund",
      "type": "event"
    },
    {
      "anonymous": false,
      "inputs": [
        {
          "indexed": false,
          "name": "_amount",
          "type": "uint256"
        }
      ],
      "name": "TokensRefund",
      "type": "event"
    },
    {
      "anonymous": false,
      "inputs": [
        {
          "indexed": true,
          "name": "previousOwner",
          "type": "address"
        },
        {
          "indexed": true,
          "name": "newOwner",
          "type": "address"
        }
      ],
      "name": "OwnershipTransferred",
      "type": "event"
    },
    {
      "constant": true,
      "inputs": [],
      "name": "calculateBonusRate",
      "outputs": [
        {
          "name": "",
          "type": "uint256"
        }
      ],
      "payable": false,
      "stateMutability": "view",
      "type": "function"
    },
    {
      "constant": false,
      "inputs": [
        {
          "name": "_addresses",
          "type": "address[]"
        },
        {
          "name": "_status",
          "type": "bool"
        }
      ],
      "name": "whitelistAddresses",
      "outputs": [],
      "payable": false,
      "stateMutability": "nonpayable",
      "type": "function"
    },
    {
      "constant": false,
      "inputs": [
        {
          "name": "_tokenTimelock",
          "type": "address"
        }
      ],
      "name": "setTokenTimeLock",
      "outputs": [],
      "payable": false,
      "stateMutability": "nonpayable",
      "type": "function"
    },
    {
      "constant": false,
      "inputs": [
        {
          "name": "beneficiary",
          "type": "address"
        }
      ],
      "name": "buyTokens",
      "outputs": [],
      "payable": true,
      "stateMutability": "payable",
      "type": "function"
    },
    {
      "constant": false,
      "inputs": [],
      "name": "checkFinalize",
      "outputs": [],
      "payable": false,
      "stateMutability": "nonpayable",
      "type": "function"
    },
    {
      "constant": true,
      "inputs": [],
      "name": "hasEnded",
      "outputs": [
        {
          "name": "",
          "type": "bool"
        }
      ],
      "payable": false,
      "stateMutability": "view",
      "type": "function"
    },
    {
      "constant": false,
      "inputs": [],
      "name": "emergencyFinalize",
      "outputs": [],
      "payable": false,
      "stateMutability": "nonpayable",
      "type": "function"
    },
    {
      "constant": false,
      "inputs": [],
      "name": "refund",
      "outputs": [
        {
          "name": "",
          "type": "bool"
        }
      ],
      "payable": false,
      "stateMutability": "nonpayable",
      "type": "function"
    },
    {
      "constant": false,
      "inputs": [
        {
          "name": "_token",
          "type": "address"
        }
      ],
      "name": "claimTokens",
      "outputs": [],
      "payable": false,
      "stateMutability": "nonpayable",
      "type": "function"
    }
  ],
  "bytecode": "0x60606040526000600360006101000a81548160ff02191690831515021790555034156200002b57600080fd5b60405160a08062001c5283398101604052808051906020019091908051906020019091908051906020019091908051906020019091908051906020019091905050336000806101000a81548173ffffffffffffffffffffffffffffffffffffffff021916908373ffffffffffffffffffffffffffffffffffffffff160217905550620000ca620002816401000000000262001952176401000000009004565b8410151515620000d957600080fd5b838310151515620000e957600080fd5b600082111515620000f957600080fd5b8473ffffffffffffffffffffffffffffffffffffffff166373138e4f6000604051602001526040518163ffffffff167c0100000000000000000000000000000000000000000000000000000000028152600401602060405180830381600087803b15156200016657600080fd5b6102c65a03f115156200017857600080fd5b5050506040518051905082111515156200019157600080fd5b60008173ffffffffffffffffffffffffffffffffffffffff1614151515620001b857600080fd5b60008573ffffffffffffffffffffffffffffffffffffffff1614151515620001df57600080fd5b84600560006101000a81548173ffffffffffffffffffffffffffffffffffffffff021916908373ffffffffffffffffffffffffffffffffffffffff16021790555083600681905550826007819055508160048190555080600860006101000a81548173ffffffffffffffffffffffffffffffffffffffff021916908373ffffffffffffffffffffffffffffffffffffffff160217905550505050505062000289565b600042905090565b6119b980620002996000396000f30060606040526004361061011d576000357c0100000000000000000000000000000000000000000000000000000000900463ffffffff1680633197cbb614610128578063355274ea146101515780634042b66f1461017a57806342c14cfe146101a3578063521eb273146101cc57806352a9039c14610221578063590e1ae31461026e57806362e7707e1461029b57806378e97925146103005780638d4e4083146103295780638da5cb5b1461035657806393ce9791146103ab5780639b19251a146103c0578063bba5251614610411578063c2161c8814610466578063df8de3e71461047b578063ec8ac4d8146104b4578063ecb70fb7146104e2578063f2fde38b1461050f578063f332556c14610548578063fc0c546a14610581575b610126336105d6565b005b341561013357600080fd5b61013b610b26565b6040518082815260200191505060405180910390f35b341561015c57600080fd5b610164610b2c565b6040518082815260200191505060405180910390f35b341561018557600080fd5b61018d610b32565b6040518082815260200191505060405180910390f35b34156101ae57600080fd5b6101b6610b38565b6040518082815260200191505060405180910390f35b34156101d757600080fd5b6101df610b47565b604051808273ffffffffffffffffffffffffffffffffffffffff1673ffffffffffffffffffffffffffffffffffffffff16815260200191505060405180910390f35b341561022c57600080fd5b610258600480803573ffffffffffffffffffffffffffffffffffffffff16906020019091905050610b6d565b6040518082815260200191505060405180910390f35b341561027957600080fd5b610281610b85565b604051808215151515815260200191505060405180910390f35b34156102a657600080fd5b6102fe6004808035906020019082018035906020019080806020026020016040519081016040528093929190818152602001838360200280828437820191505050505050919080351515906020019091905050610e3e565b005b341561030b57600080fd5b610313610f8c565b6040518082815260200191505060405180910390f35b341561033457600080fd5b61033c610f92565b604051808215151515815260200191505060405180910390f35b341561036157600080fd5b610369610fa5565b604051808273ffffffffffffffffffffffffffffffffffffffff1673ffffffffffffffffffffffffffffffffffffffff16815260200191505060405180910390f35b34156103b657600080fd5b6103be610fca565b005b34156103cb57600080fd5b6103f7600480803573ffffffffffffffffffffffffffffffffffffffff1690602001909190505061102f565b604051808215151515815260200191505060405180910390f35b341561041c57600080fd5b61042461104f565b604051808273ffffffffffffffffffffffffffffffffffffffff1673ffffffffffffffffffffffffffffffffffffffff16815260200191505060405180910390f35b341561047157600080fd5b610479611075565b005b341561048657600080fd5b6104b2600480803573ffffffffffffffffffffffffffffffffffffffff1690602001909190505061108d565b005b6104e0600480803573ffffffffffffffffffffffffffffffffffffffff169060200190919050506105d6565b005b34156104ed57600080fd5b6104f5611382565b604051808215151515815260200191505060405180910390f35b341561051a57600080fd5b610546600480803573ffffffffffffffffffffffffffffffffffffffff169060200190919050506113ce565b005b341561055357600080fd5b61057f600480803573ffffffffffffffffffffffffffffffffffffffff16906020019091905050611523565b005b341561058c57600080fd5b6105946115c2565b604051808273ffffffffffffffffffffffffffffffffffffffff1673ffffffffffffffffffffffffffffffffffffffff16815260200191505060405180910390f35b600080600080600260008673ffffffffffffffffffffffffffffffffffffffff1673ffffffffffffffffffffffffffffffffffffffff16815260200190815260200160002060009054906101000a900460ff16151561063457600080fd5b60008573ffffffffffffffffffffffffffffffffffffffff161415151561065a57600080fd5b6106626115e8565b151561066d57600080fd5b34935061068760095460045461173d90919063ffffffff16565b925082841115610695578293505b6106a8843461173d90919063ffffffff16565b91506106b384611756565b9050600560009054906101000a900473ffffffffffffffffffffffffffffffffffffffff1673ffffffffffffffffffffffffffffffffffffffff16633f4ba83a6040518163ffffffff167c0100000000000000000000000000000000000000000000000000000000028152600401600060405180830381600087803b151561073a57600080fd5b6102c65a03f1151561074b57600080fd5b5050506107638460095461177990919063ffffffff16565b60098190555061077284611797565b6000821115610821573373ffffffffffffffffffffffffffffffffffffffff166108fc839081150290604051600060405180830381858888f1935050505015156107bb57600080fd5b8473ffffffffffffffffffffffffffffffffffffffff163373ffffffffffffffffffffffffffffffffffffffff167ff40cc8c1a1d17359049ba500cfc894596a692cffc9d03943cd92ec2e159cf6ae846040518082815260200191505060405180910390a35b8473ffffffffffffffffffffffffffffffffffffffff163373ffffffffffffffffffffffffffffffffffffffff167f623b3804fa71d67900d064613da8f94b9617215ee90799290593e1745087ad188684604051808381526020018281526020019250505060405180910390a3600560009054906101000a900473ffffffffffffffffffffffffffffffffffffffff1673ffffffffffffffffffffffffffffffffffffffff1663a9059cbb600a60009054906101000a900473ffffffffffffffffffffffffffffffffffffffff16836000604051602001526040518363ffffffff167c0100000000000000000000000000000000000000000000000000000000028152600401808373ffffffffffffffffffffffffffffffffffffffff1673ffffffffffffffffffffffffffffffffffffffff16815260200182815260200192505050602060405180830381600087803b151561097d57600080fd5b6102c65a03f1151561098e57600080fd5b5050506040518051905050600a60009054906101000a900473ffffffffffffffffffffffffffffffffffffffff1673ffffffffffffffffffffffffffffffffffffffff166347e7ef2486836040518363ffffffff167c0100000000000000000000000000000000000000000000000000000000028152600401808373ffffffffffffffffffffffffffffffffffffffff1673ffffffffffffffffffffffffffffffffffffffff16815260200182815260200192505050600060405180830381600087803b1515610a5d57600080fd5b6102c65a03f11515610a6e57600080fd5b505050600560009054906101000a900473ffffffffffffffffffffffffffffffffffffffff1673ffffffffffffffffffffffffffffffffffffffff16638456cb596040518163ffffffff167c0100000000000000000000000000000000000000000000000000000000028152600401600060405180830381600087803b1515610af657600080fd5b6102c65a03f11515610b0757600080fd5b5050506004546009541415610b1f57610b1e611075565b5b5050505050565b60075481565b60045481565b60095481565b600080611a5e90508091505090565b600860009054906101000a900473ffffffffffffffffffffffffffffffffffffffff1681565b60016020528060005260406000206000915090505481565b6000806000809054906101000a900473ffffffffffffffffffffffffffffffffffffffff1673ffffffffffffffffffffffffffffffffffffffff163373ffffffffffffffffffffffffffffffffffffffff16141515610be357600080fd5b610beb611382565b1515610bf657600080fd5b600560009054906101000a900473ffffffffffffffffffffffffffffffffffffffff1673ffffffffffffffffffffffffffffffffffffffff166370a08231306000604051602001526040518263ffffffff167c0100000000000000000000000000000000000000000000000000000000028152600401808273ffffffffffffffffffffffffffffffffffffffff1673ffffffffffffffffffffffffffffffffffffffff168152602001915050602060405180830381600087803b1515610cbb57600080fd5b6102c65a03f11515610ccc57600080fd5b5050506040518051905090506000811415610cea5760009150610e3a565b600560009054906101000a900473ffffffffffffffffffffffffffffffffffffffff1673ffffffffffffffffffffffffffffffffffffffff1663a9059cbb6000809054906101000a900473ffffffffffffffffffffffffffffffffffffffff16836000604051602001526040518363ffffffff167c0100000000000000000000000000000000000000000000000000000000028152600401808373ffffffffffffffffffffffffffffffffffffffff1673ffffffffffffffffffffffffffffffffffffffff16815260200182815260200192505050602060405180830381600087803b1515610dd857600080fd5b6102c65a03f11515610de957600080fd5b505050604051805190501515610dfe57600080fd5b7ff3d11fa0b0c8ecc03cfb3e9730f3e26aab44a500bbd00c264dd40f331fd68a48816040518082815260200191505060405180910390a1600191505b5090565b6000806000809054906101000a900473ffffffffffffffffffffffffffffffffffffffff1673ffffffffffffffffffffffffffffffffffffffff163373ffffffffffffffffffffffffffffffffffffffff16141515610e9c57600080fd5b600091505b8351821015610f86578382815181101515610eb857fe5b906020019060200201519050821515600260008373ffffffffffffffffffffffffffffffffffffffff1673ffffffffffffffffffffffffffffffffffffffff16815260200190815260200160002060009054906101000a900460ff1615151415610f2157610f79565b82600260008373ffffffffffffffffffffffffffffffffffffffff1673ffffffffffffffffffffffffffffffffffffffff16815260200190815260200160002060006101000a81548160ff0219169083151502179055505b8180600101925050610ea1565b50505050565b60065481565b600360009054906101000a900460ff1681565b6000809054906101000a900473ffffffffffffffffffffffffffffffffffffffff1681565b6000809054906101000a900473ffffffffffffffffffffffffffffffffffffffff1673ffffffffffffffffffffffffffffffffffffffff163373ffffffffffffffffffffffffffffffffffffffff1614151561102557600080fd5b61102d6117fc565b565b60026020528060005260406000206000915054906101000a900460ff1681565b600a60009054906101000a900473ffffffffffffffffffffffffffffffffffffffff1681565b61107d611382565b1561108b5761108a6117fc565b5b565b6000806000809054906101000a900473ffffffffffffffffffffffffffffffffffffffff1673ffffffffffffffffffffffffffffffffffffffff163373ffffffffffffffffffffffffffffffffffffffff161415156110eb57600080fd5b6110f3611382565b15156110fe57600080fd5b60008373ffffffffffffffffffffffffffffffffffffffff16141561119a576000809054906101000a900473ffffffffffffffffffffffffffffffffffffffff1673ffffffffffffffffffffffffffffffffffffffff166108fc3073ffffffffffffffffffffffffffffffffffffffff16319081150290604051600060405180830381858888f19350505050151561119557600080fd5b61137d565b8291508173ffffffffffffffffffffffffffffffffffffffff166370a08231306000604051602001526040518263ffffffff167c0100000000000000000000000000000000000000000000000000000000028152600401808273ffffffffffffffffffffffffffffffffffffffff1673ffffffffffffffffffffffffffffffffffffffff168152602001915050602060405180830381600087803b151561124057600080fd5b6102c65a03f1151561125157600080fd5b5050506040518051905090508173ffffffffffffffffffffffffffffffffffffffff1663a9059cbb6000809054906101000a900473ffffffffffffffffffffffffffffffffffffffff16836000604051602001526040518363ffffffff167c0100000000000000000000000000000000000000000000000000000000028152600401808373ffffffffffffffffffffffffffffffffffffffff1673ffffffffffffffffffffffffffffffffffffffff16815260200182815260200192505050602060405180830381600087803b151561132957600080fd5b6102c65a03f1151561133a57600080fd5b50505060405180519050507ff3d11fa0b0c8ecc03cfb3e9730f3e26aab44a500bbd00c264dd40f331fd68a48816040518082815260200191505060405180910390a15b505050565b6000806000600360009054906101000a900460ff16156113a557600192506113c9565b600454600954101591506007546113ba611952565b11905080806113c65750815b92505b505090565b6000809054906101000a900473ffffffffffffffffffffffffffffffffffffffff1673ffffffffffffffffffffffffffffffffffffffff163373ffffffffffffffffffffffffffffffffffffffff1614151561142957600080fd5b600073ffffffffffffffffffffffffffffffffffffffff168173ffffffffffffffffffffffffffffffffffffffff161415151561146557600080fd5b8073ffffffffffffffffffffffffffffffffffffffff166000809054906101000a900473ffffffffffffffffffffffffffffffffffffffff1673ffffffffffffffffffffffffffffffffffffffff167f8be0079c531659141344cd1fd0a4f28419497f9722a3daafe3b4186f6b6457e060405160405180910390a3806000806101000a81548173ffffffffffffffffffffffffffffffffffffffff021916908373ffffffffffffffffffffffffffffffffffffffff16021790555050565b6000809054906101000a900473ffffffffffffffffffffffffffffffffffffffff1673ffffffffffffffffffffffffffffffffffffffff163373ffffffffffffffffffffffffffffffffffffffff1614151561157e57600080fd5b80600a60006101000a81548173ffffffffffffffffffffffffffffffffffffffff021916908373ffffffffffffffffffffffffffffffffffffffff16021790555050565b600560009054906101000a900473ffffffffffffffffffffffffffffffffffffffff1681565b6000806000806115f6611075565b600360009054906101000a900460ff1615151561161257600080fd5b60065461161d611952565b101580156116345750600754611631611952565b11155b9250600034141591506000600560009054906101000a900473ffffffffffffffffffffffffffffffffffffffff1673ffffffffffffffffffffffffffffffffffffffff166370a08231306000604051602001526040518263ffffffff167c0100000000000000000000000000000000000000000000000000000000028152600401808273ffffffffffffffffffffffffffffffffffffffff1673ffffffffffffffffffffffffffffffffffffffff168152602001915050602060405180830381600087803b151561170457600080fd5b6102c65a03f1151561171557600080fd5b5050506040518051905011905082801561172c5750815b80156117355750805b935050505090565b600082821115151561174b57fe5b818303905092915050565b6000611772611763610b38565b8361195a90919063ffffffff16565b9050919050565b600080828401905083811015151561178d57fe5b8091505092915050565b600860009054906101000a900473ffffffffffffffffffffffffffffffffffffffff1673ffffffffffffffffffffffffffffffffffffffff166108fc829081150290604051600060405180830381858888f1935050505015156117f957600080fd5b50565b600360009054906101000a900460ff1615151561181857600080fd5b7f6823b073d48d6e3a7d385eeb601452d680e74bb46afe3255a7d778f3a9b1768160405160405180910390a16001600360006101000a81548160ff021916908315150217905550600560009054906101000a900473ffffffffffffffffffffffffffffffffffffffff1673ffffffffffffffffffffffffffffffffffffffff1663f2fde38b6000809054906101000a900473ffffffffffffffffffffffffffffffffffffffff166040518263ffffffff167c0100000000000000000000000000000000000000000000000000000000028152600401808273ffffffffffffffffffffffffffffffffffffffff1673ffffffffffffffffffffffffffffffffffffffff168152602001915050600060405180830381600087803b151561193c57600080fd5b6102c65a03f1151561194d57600080fd5b505050565b600042905090565b6000808284029050600084148061197b575082848281151561197857fe5b04145b151561198357fe5b80915050929150505600a165627a7a7230582092c8f0f63dce454433fc3bf96a4303ba847d43959323d9f273614cb8d8b214360029",
  "source": "pragma solidity ^0.4.18;\n\nimport 'zeppelin-solidity/contracts/ownership/Ownable.sol';\nimport 'zeppelin-solidity/contracts/math/SafeMath.sol';\nimport 'zeppelin-solidity/contracts/token/ERC20Basic.sol';\nimport './MenloTokenTimelock.sol';\nimport './MenloToken.sol';\n\n/**\n * @title MenloTokenPresale\n * @dev Modified from OpenZeppelin's Crowdsale.sol\n * CappedCrowdsale.sol, and FinalizableCrowdsale.sol\n * Uses PausableToken rather than MintableToken.\n *\n * Requires that tokens for sale (entire supply minus team's portion) be deposited.\n */\ncontract MenloTokenPresale is Ownable {\n  using SafeMath for uint256;\n\n  // Token allocations\n  mapping (address => uint256) public allocations;\n\n  // Whitelisted investors\n  mapping (address => bool) public whitelist;\n\n  // manual early close flag\n  bool public isFinalized = false;\n\n  // cap for crowdsale in wei\n  uint256 public cap;\n\n  // The token being sold\n  MenloToken public token;\n\n  // start and end timestamps where contributions are allowed (both inclusive)\n  uint256 public startTime;\n  uint256 public endTime;\n\n  // address where funds are collected\n  address public wallet;\n\n  // amount of raised money in wei\n  uint256 public weiRaised;\n\n  /**\n   * event for token purchase logging\n   * @param purchaser who paid for the tokens\n   * @param beneficiary who got the tokens\n   * @param value weis paid for purchase\n   * @param amount amount of tokens purchased\n   */\n  event TokenPurchase(address indexed purchaser, address indexed beneficiary, uint256 value, uint256 amount);\n\n  /**\n   * event for token redemption logging\n   * @param beneficiary who got the tokens\n   * @param amount amount of tokens redeemed\n   */\n  event TokenRedeem(address indexed beneficiary, uint256 amount);\n\n  // termination early or otherwise\n  event Finalized();\n\n  /**\n   * event refund of excess ETH if purchase is above the cap\n   * @param amount amount of ETH (in wei) refunded\n   */\n  event Refund(address indexed purchaser, address indexed beneficiary, uint256 amount);\n\n  function MenloTokenPresale(\n      address _token,\n      uint256 _startTime,\n      uint256 _endTime,\n      uint256 _cap,\n      address _wallet\n  ) public {\n    require(_startTime >= getBlockTimestamp());\n    require(_endTime >= _startTime);\n    require(_cap > 0);\n    require(_cap <= MenloToken(_token).PRESALE_SUPPLY());\n    require(_wallet != 0x0);\n    require(_token != 0x0);\n\n    token = MenloToken(_token);\n    startTime = _startTime;\n    endTime = _endTime;\n    cap = _cap;\n    wallet = _wallet;\n  }\n\n  // fallback function can be used to buy tokens\n  function () public payable {\n    buyTokens(msg.sender);\n  }\n\n  // 1 ETH = 6,750 MET\n  function calculateBonusRate() public view returns (uint256) {\n    uint256 bonusRate = 6750;\n\n    return bonusRate;\n  }\n\n  /// @notice interface for founders to whitelist investors\n  /// @param _addresses array of investors\n  /// @param _status enable or disable\n  function whitelistAddresses(address[] _addresses, bool _status) public onlyOwner {\n    for (uint256 i = 0; i < _addresses.length; i++) {\n        address investorAddress = _addresses[i];\n        if (whitelist[investorAddress] == _status) {\n          continue;\n        }\n        whitelist[investorAddress] = _status;\n    }\n   }\n\n   function ethToTokens(uint256 ethAmount) internal view returns (uint256) {\n    return ethAmount.mul(calculateBonusRate());\n   }\n\n   address public tokenTimelock;\n\n   function setTokenTimeLock(address _tokenTimelock) public onlyOwner {\n     tokenTimelock = _tokenTimelock;\n   }\n\n  // low level token purchase function\n  // caution: tokens must be redeemed by beneficiary address\n  function buyTokens(address beneficiary) public payable {\n    require(whitelist[beneficiary]);\n    require(beneficiary != 0x0);\n    require(validPurchase());\n\n    uint256 weiAmount = msg.value;\n\n    uint256 remainingToFund = cap.sub(weiRaised);\n    if (weiAmount > remainingToFund) {\n      weiAmount = remainingToFund;\n    }\n    uint256 weiToReturn = msg.value.sub(weiAmount);\n    uint256 tokens = ethToTokens(weiAmount);\n\n    token.unpause();\n    weiRaised = weiRaised.add(weiAmount);\n\n    forwardFunds(weiAmount);\n    if (weiToReturn > 0) {\n      msg.sender.transfer(weiToReturn);\n      Refund(msg.sender, beneficiary, weiToReturn);\n    }\n    // send tokens to MenloTokenTimelock\n    TokenPurchase(msg.sender, beneficiary, weiAmount, tokens);\n    token.transfer(tokenTimelock, tokens);\n    MenloTokenTimelock(tokenTimelock).deposit(beneficiary, tokens);\n    token.pause();\n\n    if (weiRaised == cap) {\n      checkFinalize();\n    }\n  }\n\n  // send ether to the fund collection wallet\n  // override to create custom fund forwarding mechanisms\n  function forwardFunds(uint256 amount) internal {\n    wallet.transfer(amount);\n  }\n\n  function checkFinalize() public {\n    if (hasEnded()) {\n      finalize();\n    }\n  }\n\n  // @return true if the transaction can buy tokens\n  function validPurchase() internal returns (bool) {\n    checkFinalize();\n    require(!isFinalized);\n    bool withinPeriod = getBlockTimestamp() >= startTime && getBlockTimestamp() <= endTime;\n    bool nonZeroPurchase = msg.value != 0;\n    bool contractHasTokens = token.balanceOf(this) > 0;\n    return withinPeriod && nonZeroPurchase && contractHasTokens;\n  }\n\n  // @return true if crowdsale event has ended or cap reached\n  function hasEnded() public constant returns (bool) {\n    if (isFinalized) {\n      return true;\n    }\n    bool capReached = weiRaised >= cap;\n    bool passedEndTime = getBlockTimestamp() > endTime;\n    return passedEndTime || capReached;\n  }\n\n  function getBlockTimestamp() internal view returns (uint256) {\n    return block.timestamp;\n  }\n\n  function emergencyFinalize() public onlyOwner {\n    finalize();\n  }\n  // @dev does not require that crowdsale `hasEnded()` to leave safegaurd\n  // in place if ETH rises in price too much during crowdsale.\n  // Allows team to close early if cap is exceeded in USD in this event.\n  function finalize() internal {\n    require(!isFinalized);\n    Finalized();\n    isFinalized = true;\n    token.transferOwnership(owner);\n  }\n\n  // Allows the owner to take back the tokens that are assigned to the sale contract.\n  event TokensRefund(uint256 _amount);\n  function refund() external onlyOwner returns (bool) {\n      require(hasEnded());\n      uint256 tokens = token.balanceOf(address(this));\n\n      if (tokens == 0) {\n         return false;\n      }\n\n      require(token.transfer(owner, tokens));\n\n      TokensRefund(tokens);\n\n      return true;\n   }\n\n  function claimTokens(address _token) public onlyOwner {\n    require(hasEnded());\n    if (_token == 0x0) {\n        owner.transfer(this.balance);\n        return;\n    }\n\n    ERC20Basic refundToken = ERC20Basic(_token);\n    uint256 balance = refundToken.balanceOf(this);\n    refundToken.transfer(owner, balance);\n    TokensRefund(balance);\n  }\n}\n",
  "sourcePath": "/home/git/update/menlo-token-crowdsale/contracts/MenloTokenPresale.sol",
  "compiler": {
    "name": "solc",
    "version": "0.4.19+commit.c4cbbb05.Emscripten.clang"
  },
  "schemaVersion": "1.0.1",
  "updatedAt": "2018-02-17T22:49:02.724Z"
}