{
  "contractName": "MenloTokenVesting",
  "abi": [
    {
      "constant": true,
      "inputs": [],
      "name": "cliffTime",
      "outputs": [
        {
          "name": "",
          "type": "uint256"
        }
      ],
      "payable": false,
      "stateMutability": "view",
      "type": "function"
    },
    {
      "constant": true,
      "inputs": [
        {
          "name": "",
          "type": "address"
        }
      ],
      "name": "collections",
      "outputs": [
        {
          "name": "",
          "type": "uint256"
        }
      ],
      "payable": false,
      "stateMutability": "view",
      "type": "function"
    },
    {
      "constant": true,
      "inputs": [
        {
          "name": "",
          "type": "address"
        }
      ],
      "name": "allocations",
      "outputs": [
        {
          "name": "",
          "type": "uint256"
        }
      ],
      "payable": false,
      "stateMutability": "view",
      "type": "function"
    },
    {
      "constant": true,
      "inputs": [],
      "name": "startTime",
      "outputs": [
        {
          "name": "",
          "type": "uint256"
        }
      ],
      "payable": false,
      "stateMutability": "view",
      "type": "function"
    },
    {
      "constant": true,
      "inputs": [],
      "name": "collected",
      "outputs": [
        {
          "name": "",
          "type": "uint256"
        }
      ],
      "payable": false,
      "stateMutability": "view",
      "type": "function"
    },
    {
      "constant": true,
      "inputs": [],
      "name": "owner",
      "outputs": [
        {
          "name": "",
          "type": "address"
        }
      ],
      "payable": false,
      "stateMutability": "view",
      "type": "function"
    },
    {
      "constant": true,
      "inputs": [],
      "name": "allocated",
      "outputs": [
        {
          "name": "",
          "type": "uint256"
        }
      ],
      "payable": false,
      "stateMutability": "view",
      "type": "function"
    },
    {
      "constant": true,
      "inputs": [],
      "name": "releaseTime",
      "outputs": [
        {
          "name": "",
          "type": "uint256"
        }
      ],
      "payable": false,
      "stateMutability": "view",
      "type": "function"
    },
    {
      "constant": true,
      "inputs": [],
      "name": "numPeriods",
      "outputs": [
        {
          "name": "",
          "type": "uint256"
        }
      ],
      "payable": false,
      "stateMutability": "view",
      "type": "function"
    },
    {
      "constant": true,
      "inputs": [],
      "name": "allocationFinished",
      "outputs": [
        {
          "name": "",
          "type": "bool"
        }
      ],
      "payable": false,
      "stateMutability": "view",
      "type": "function"
    },
    {
      "constant": true,
      "inputs": [],
      "name": "period",
      "outputs": [
        {
          "name": "",
          "type": "uint256"
        }
      ],
      "payable": false,
      "stateMutability": "view",
      "type": "function"
    },
    {
      "constant": false,
      "inputs": [
        {
          "name": "newOwner",
          "type": "address"
        }
      ],
      "name": "transferOwnership",
      "outputs": [],
      "payable": false,
      "stateMutability": "nonpayable",
      "type": "function"
    },
    {
      "inputs": [
        {
          "name": "_token",
          "type": "address"
        },
        {
          "name": "_startTime",
          "type": "uint256"
        },
        {
          "name": "_cliffTime",
          "type": "uint256"
        },
        {
          "name": "_releaseTime",
          "type": "uint256"
        },
        {
          "name": "_period",
          "type": "uint256"
        },
        {
          "name": "_vestingAmount",
          "type": "uint256"
        }
      ],
      "payable": false,
      "stateMutability": "nonpayable",
      "type": "constructor"
    },
    {
      "anonymous": false,
      "inputs": [
        {
          "indexed": true,
          "name": "_holder",
          "type": "address"
        },
        {
          "indexed": false,
          "name": "_amount",
          "type": "uint256"
        }
      ],
      "name": "TokensWithdrawn",
      "type": "event"
    },
    {
      "anonymous": false,
      "inputs": [
        {
          "indexed": true,
          "name": "token",
          "type": "address"
        },
        {
          "indexed": false,
          "name": "_amount",
          "type": "uint256"
        }
      ],
      "name": "TokensClaimed",
      "type": "event"
    },
    {
      "anonymous": false,
      "inputs": [
        {
          "indexed": true,
          "name": "previousOwner",
          "type": "address"
        },
        {
          "indexed": true,
          "name": "newOwner",
          "type": "address"
        }
      ],
      "name": "OwnershipTransferred",
      "type": "event"
    },
    {
      "constant": false,
      "inputs": [
        {
          "name": "_holders",
          "type": "address[]"
        },
        {
          "name": "_amounts",
          "type": "uint256[]"
        }
      ],
      "name": "allocateArray",
      "outputs": [],
      "payable": false,
      "stateMutability": "nonpayable",
      "type": "function"
    },
    {
      "constant": false,
      "inputs": [
        {
          "name": "_holder",
          "type": "address"
        },
        {
          "name": "_amount",
          "type": "uint256"
        }
      ],
      "name": "allocate",
      "outputs": [],
      "payable": false,
      "stateMutability": "nonpayable",
      "type": "function"
    },
    {
      "constant": false,
      "inputs": [],
      "name": "finishAllocation",
      "outputs": [],
      "payable": false,
      "stateMutability": "nonpayable",
      "type": "function"
    },
    {
      "constant": false,
      "inputs": [],
      "name": "collect",
      "outputs": [],
      "payable": false,
      "stateMutability": "nonpayable",
      "type": "function"
    },
    {
      "constant": false,
      "inputs": [
        {
          "name": "_token",
          "type": "address"
        }
      ],
      "name": "claimTokens",
      "outputs": [],
      "payable": false,
      "stateMutability": "nonpayable",
      "type": "function"
    }
  ],
  "bytecode": "0x606060405234156200001057600080fd5b60405160c0806200148e83398101604052808051906020019091908051906020019091908051906020019091908051906020019091908051906020019091908051906020019091905050336000806101000a81548173ffffffffffffffffffffffffffffffffffffffff021916908373ffffffffffffffffffffffffffffffffffffffff16021790555060008673ffffffffffffffffffffffffffffffffffffffff1614151515620000c157600080fd5b620000df620001de64010000000002620011e0176401000000009004565b85111515620000ed57600080fd5b848410151515620000fd57600080fd5b8383101515156200010d57600080fd5b6000811115156200011d57600080fd5b85600160006101000a81548173ffffffffffffffffffffffffffffffffffffffff021916908373ffffffffffffffffffffffffffffffffffffffff1602179055508060028190555084600381905550836004819055508260058190555081600681905550620001cc600654620001af600354600554620001e664010000000002620011a9179091906401000000009004565b6200020064010000000002620011e8179091906401000000009004565b6007819055505050505050506200021c565b600042905090565b6000828211151515620001f557fe5b818303905092915050565b60008082848115156200020f57fe5b0490508091505092915050565b611262806200022c6000396000f3006060604052600436106100f1576000357c0100000000000000000000000000000000000000000000000000000000900463ffffffff1680630f1a6444146100f6578063331350ee1461011f57806343add2e61461013457806352a9039c1461018157806358bb50ed146101ce57806378e979251461026857806384bcefd4146102915780638da5cb5b146102ba578063b304b2e11461030f578063b78b52df14610338578063b91d40011461037a578063dcd65479146103a3578063df8de3e7146103cc578063e522538114610405578063e91e10af1461041a578063ef78d4fd14610447578063f2fde38b14610470575b600080fd5b341561010157600080fd5b6101096104a9565b6040518082815260200191505060405180910390f35b341561012a57600080fd5b6101326104af565b005b341561013f57600080fd5b61016b600480803573ffffffffffffffffffffffffffffffffffffffff16906020019091905050610530565b6040518082815260200191505060405180910390f35b341561018c57600080fd5b6101b8600480803573ffffffffffffffffffffffffffffffffffffffff16906020019091905050610548565b6040518082815260200191505060405180910390f35b34156101d957600080fd5b61026660048080359060200190820180359060200190808060200260200160405190810160405280939291908181526020018383602002808284378201915050505050509190803590602001908201803590602001908080602002602001604051908101604052809392919081815260200183836020028082843782019150505050505091905050610560565b005b341561027357600080fd5b61027b610625565b6040518082815260200191505060405180910390f35b341561029c57600080fd5b6102a461062b565b6040518082815260200191505060405180910390f35b34156102c557600080fd5b6102cd610631565b604051808273ffffffffffffffffffffffffffffffffffffffff1673ffffffffffffffffffffffffffffffffffffffff16815260200191505060405180910390f35b341561031a57600080fd5b610322610656565b6040518082815260200191505060405180910390f35b341561034357600080fd5b610378600480803573ffffffffffffffffffffffffffffffffffffffff1690602001909190803590602001909190505061065c565b005b341561038557600080fd5b61038d6108b2565b6040518082815260200191505060405180910390f35b34156103ae57600080fd5b6103b66108b8565b6040518082815260200191505060405180910390f35b34156103d757600080fd5b610403600480803573ffffffffffffffffffffffffffffffffffffffff169060200190919050506108be565b005b341561041057600080fd5b610418610c25565b005b341561042557600080fd5b61042d61103b565b604051808215151515815260200191505060405180910390f35b341561045257600080fd5b61045a61104e565b6040518082815260200191505060405180910390f35b341561047b57600080fd5b6104a7600480803573ffffffffffffffffffffffffffffffffffffffff16906020019091905050611054565b005b60045481565b6000809054906101000a900473ffffffffffffffffffffffffffffffffffffffff1673ffffffffffffffffffffffffffffffffffffffff163373ffffffffffffffffffffffffffffffffffffffff1614151561050a57600080fd5b600a546002819055506001600c60006101000a81548160ff021916908315150217905550565b60096020528060005260406000206000915090505481565b60086020528060005260406000206000915090505481565b60008060009054906101000a900473ffffffffffffffffffffffffffffffffffffffff1673ffffffffffffffffffffffffffffffffffffffff163373ffffffffffffffffffffffffffffffffffffffff161415156105bd57600080fd5b815183511415156105cd57600080fd5b600090505b82518110156106205761061383828151811015156105ec57fe5b90602001906020020151838381518110151561060457fe5b9060200190602002015161065c565b80806001019150506105d2565b505050565b60035481565b600b5481565b6000809054906101000a900473ffffffffffffffffffffffffffffffffffffffff1681565b600a5481565b6000809054906101000a900473ffffffffffffffffffffffffffffffffffffffff1673ffffffffffffffffffffffffffffffffffffffff163373ffffffffffffffffffffffffffffffffffffffff161415156106b757600080fd5b600c60009054906101000a900460ff161515156106d357600080fd5b60008273ffffffffffffffffffffffffffffffffffffffff16141515156106f957600080fd5b61075f81610751600860008673ffffffffffffffffffffffffffffffffffffffff1673ffffffffffffffffffffffffffffffffffffffff16815260200190815260200160002054600a546111a990919063ffffffff16565b6111c290919063ffffffff16565b600a81905550600160009054906101000a900473ffffffffffffffffffffffffffffffffffffffff1673ffffffffffffffffffffffffffffffffffffffff166370a08231306000604051602001526040518263ffffffff167c0100000000000000000000000000000000000000000000000000000000028152600401808273ffffffffffffffffffffffffffffffffffffffff1673ffffffffffffffffffffffffffffffffffffffff168152602001915050602060405180830381600087803b151561082a57600080fd5b6102c65a03f1151561083b57600080fd5b50505060405180519050600a541115151561085557600080fd5b600254600a54141561086a576108696104af565b5b80600860008473ffffffffffffffffffffffffffffffffffffffff1673ffffffffffffffffffffffffffffffffffffffff168152602001908152602001600020819055505050565b60055481565b60075481565b6000806000809054906101000a900473ffffffffffffffffffffffffffffffffffffffff1673ffffffffffffffffffffffffffffffffffffffff163373ffffffffffffffffffffffffffffffffffffffff1614151561091c57600080fd5b60008373ffffffffffffffffffffffffffffffffffffffff1614156109b8576000809054906101000a900473ffffffffffffffffffffffffffffffffffffffff1673ffffffffffffffffffffffffffffffffffffffff166108fc3073ffffffffffffffffffffffffffffffffffffffff16319081150290604051600060405180830381858888f1935050505015156109b357600080fd5b610c20565b8291508173ffffffffffffffffffffffffffffffffffffffff166370a08231306000604051602001526040518263ffffffff167c0100000000000000000000000000000000000000000000000000000000028152600401808273ffffffffffffffffffffffffffffffffffffffff1673ffffffffffffffffffffffffffffffffffffffff168152602001915050602060405180830381600087803b1515610a5e57600080fd5b6102c65a03f11515610a6f57600080fd5b505050604051805190509050600160009054906101000a900473ffffffffffffffffffffffffffffffffffffffff1673ffffffffffffffffffffffffffffffffffffffff168273ffffffffffffffffffffffffffffffffffffffff161415610ae957610ae6600a54826111a990919063ffffffff16565b90505b8173ffffffffffffffffffffffffffffffffffffffff1663a9059cbb6000809054906101000a900473ffffffffffffffffffffffffffffffffffffffff16836000604051602001526040518363ffffffff167c0100000000000000000000000000000000000000000000000000000000028152600401808373ffffffffffffffffffffffffffffffffffffffff1673ffffffffffffffffffffffffffffffffffffffff16815260200182815260200192505050602060405180830381600087803b1515610bb557600080fd5b6102c65a03f11515610bc657600080fd5b50505060405180519050508273ffffffffffffffffffffffffffffffffffffffff167f896e034966eaaf1adc54acc0f257056febbd300c9e47182cf761982cf1f5e430826040518082815260200191505060405180910390a25b505050565b600080600080600454610c366111e0565b10151515610c4357600080fd5b600860003373ffffffffffffffffffffffffffffffffffffffff1673ffffffffffffffffffffffffffffffffffffffff168152602001908152602001600020549350610cd784600960003373ffffffffffffffffffffffffffffffffffffffff1673ffffffffffffffffffffffffffffffffffffffff168152602001908152602001600020546111c290919063ffffffff16565b9250610d09600654610cfb600354610ced6111e0565b6111a990919063ffffffff16565b6111e890919063ffffffff16565b9150610d32600754610d24848661120390919063ffffffff16565b6111e890919063ffffffff16565b9050610d86600960003373ffffffffffffffffffffffffffffffffffffffff1673ffffffffffffffffffffffffffffffffffffffff16815260200190815260200160002054826111a990919063ffffffff16565b905083811115610d94578390505b610de681600860003373ffffffffffffffffffffffffffffffffffffffff1673ffffffffffffffffffffffffffffffffffffffff168152602001908152602001600020546111a990919063ffffffff16565b600860003373ffffffffffffffffffffffffffffffffffffffff1673ffffffffffffffffffffffffffffffffffffffff16815260200190815260200160002081905550610e7b81600960003373ffffffffffffffffffffffffffffffffffffffff1673ffffffffffffffffffffffffffffffffffffffff168152602001908152602001600020546111c290919063ffffffff16565b600960003373ffffffffffffffffffffffffffffffffffffffff1673ffffffffffffffffffffffffffffffffffffffff16815260200190815260200160002081905550610ed381600a546111a990919063ffffffff16565b600a81905550610eee81600b546111c290919063ffffffff16565b600b81905550600160009054906101000a900473ffffffffffffffffffffffffffffffffffffffff1673ffffffffffffffffffffffffffffffffffffffff1663a9059cbb33836000604051602001526040518363ffffffff167c0100000000000000000000000000000000000000000000000000000000028152600401808373ffffffffffffffffffffffffffffffffffffffff1673ffffffffffffffffffffffffffffffffffffffff16815260200182815260200192505050602060405180830381600087803b1515610fc157600080fd5b6102c65a03f11515610fd257600080fd5b505050604051805190501515610fe757600080fd5b3373ffffffffffffffffffffffffffffffffffffffff167f6352c5382c4a4578e712449ca65e83cdb392d045dfcf1cad9615189db2da244b826040518082815260200191505060405180910390a250505050565b600c60009054906101000a900460ff1681565b60065481565b6000809054906101000a900473ffffffffffffffffffffffffffffffffffffffff1673ffffffffffffffffffffffffffffffffffffffff163373ffffffffffffffffffffffffffffffffffffffff161415156110af57600080fd5b600073ffffffffffffffffffffffffffffffffffffffff168173ffffffffffffffffffffffffffffffffffffffff16141515156110eb57600080fd5b8073ffffffffffffffffffffffffffffffffffffffff166000809054906101000a900473ffffffffffffffffffffffffffffffffffffffff1673ffffffffffffffffffffffffffffffffffffffff167f8be0079c531659141344cd1fd0a4f28419497f9722a3daafe3b4186f6b6457e060405160405180910390a3806000806101000a81548173ffffffffffffffffffffffffffffffffffffffff021916908373ffffffffffffffffffffffffffffffffffffffff16021790555050565b60008282111515156111b757fe5b818303905092915050565b60008082840190508381101515156111d657fe5b8091505092915050565b600042905090565b60008082848115156111f657fe5b0490508091505092915050565b60008082840290506000841480611224575082848281151561122157fe5b04145b151561122c57fe5b80915050929150505600a165627a7a723058202ed892e5d7d6d9150f2a526c271473b586e3c1882e4c858f46e13511a290e0020029",
  "source": "pragma solidity ^0.4.18;\n\nimport 'zeppelin-solidity/contracts/token/ERC20Basic.sol';\nimport 'zeppelin-solidity/contracts/ownership/Ownable.sol';\nimport 'zeppelin-solidity/contracts/math/SafeMath.sol';\n\ncontract MenloTokenVesting is Ownable {\n  using SafeMath for uint256;\n\n  // Contract holds ERC20 MET tokens.\n  ERC20Basic token;\n  uint256 vestingAmount;\n\n  // Important dates for vesting contract.\n  uint256 public startTime;\n  uint256 public cliffTime;\n  uint256 public releaseTime;\n\n  // Small caveat 1 month will be considered as 30 days and therefore\n  // 1 year 360 days.\n  uint256 public period;\n  uint256 public numPeriods;\n\n  // Mappings on how much is allocated and how much has been collected\n  mapping (address => uint256) public allocations;\n  mapping (address => uint256) public collections;\n\n  // General allocated and collected variables.\n  uint256 public allocated;\n  uint256 public collected;\n  bool public allocationFinished;\n\n  event TokensWithdrawn(address indexed _holder, uint256 _amount);\n\n  function MenloTokenVesting(\n      address _token,\n      uint256 _startTime,\n      uint256 _cliffTime,\n      uint256 _releaseTime,\n      uint256 _period,\n      uint256 _vestingAmount\n  ) public {\n    require(_token != 0x0);\n    require(_startTime > getBlockTimestamp());\n    require(_cliffTime >= _startTime);\n    require(_releaseTime >= _cliffTime);\n    require(_vestingAmount > 0);\n    token = ERC20Basic(_token);\n    vestingAmount = _vestingAmount;\n    startTime = _startTime;\n    cliffTime = _cliffTime;\n    releaseTime = _releaseTime;\n    period = _period;\n    numPeriods = releaseTime.sub(startTime).div(period);\n  }\n\n  function allocateArray(\n      address[] _holders,\n      uint256[] _amounts\n  ) public onlyOwner {\n    require(_holders.length == _amounts.length);\n    for (uint256 i = 0; i < _holders.length; i++) {\n      allocate(_holders[i], _amounts[i]);\n    }\n  }\n\n  function allocate(address _holder, uint256 _amount) public onlyOwner {\n    require(!allocationFinished);\n    require(_holder != 0x0);\n    allocated = allocated.sub(allocations[_holder]).add(_amount);\n    require(allocated <= token.balanceOf(address(this)));\n\n    if (allocated == vestingAmount) {\n      finishAllocation();\n    }\n\n    allocations[_holder] = _amount;\n  }\n\n  function finishAllocation() public onlyOwner {\n    vestingAmount = allocated;\n    allocationFinished = true;\n  }\n\n  function collect() public {\n    require(getBlockTimestamp() >= cliffTime);\n    uint256 balance = allocations[msg.sender];\n    uint256 total = collections[msg.sender].add(balance);\n\n    uint256 periodsPassed = getBlockTimestamp().sub(startTime).div(period);\n\n    uint256 entitled = total.mul(periodsPassed).div(numPeriods);\n\n    entitled = entitled.sub(collections[msg.sender]);\n\n    if (entitled > balance) {\n      entitled = balance;\n    }\n\n    allocations[msg.sender] = allocations[msg.sender].sub(entitled);\n    collections[msg.sender] = collections[msg.sender].add(entitled);\n    allocated = allocated.sub(entitled);\n    collected = collected.add(entitled);\n\n    require(token.transfer(msg.sender, entitled));\n\n    TokensWithdrawn(msg.sender, entitled);\n  }\n\n  function getBlockTimestamp() internal view returns (uint256) {\n    return block.timestamp;\n  }\n\n  event TokensClaimed(address indexed token, uint256 _amount);\n\n  function claimTokens(address _token) public onlyOwner {\n    if (_token == 0x0) {\n      owner.transfer(this.balance);\n      return;\n    }\n\n    ERC20Basic refundToken = ERC20Basic(_token);\n    uint256 balance = refundToken.balanceOf(this);\n\n    if (refundToken == token) {\n      balance = balance.sub(allocated);\n    }\n\n    refundToken.transfer(owner, balance);\n    TokensClaimed(_token, balance);\n  }\n}\n",
  "sourcePath": "/home/vyper/Ethereum/Menlo/menlo-token-crowdsale/contracts/MenloTokenVesting.sol",
  "compiler": {
    "name": "solc",
    "version": "0.4.19+commit.c4cbbb05.Emscripten.clang"
  },
  "schemaVersion": "1.0.1",
  "updatedAt": "2018-03-05T03:39:02.120Z"
}