{
  "contractName": "MenloTokenPresale",
  "abi": [
    {
      "constant": true,
      "inputs": [],
      "name": "whitelister",
      "outputs": [
        {
          "name": "",
          "type": "address"
        }
      ],
      "payable": false,
      "stateMutability": "view",
      "type": "function"
    },
    {
      "constant": true,
      "inputs": [],
      "name": "endTime",
      "outputs": [
        {
          "name": "",
          "type": "uint256"
        }
      ],
      "payable": false,
      "stateMutability": "view",
      "type": "function"
    },
    {
      "constant": true,
      "inputs": [],
      "name": "cap",
      "outputs": [
        {
          "name": "",
          "type": "uint256"
        }
      ],
      "payable": false,
      "stateMutability": "view",
      "type": "function"
    },
    {
      "constant": true,
      "inputs": [],
      "name": "weiRaised",
      "outputs": [
        {
          "name": "",
          "type": "uint256"
        }
      ],
      "payable": false,
      "stateMutability": "view",
      "type": "function"
    },
    {
      "constant": true,
      "inputs": [],
      "name": "wallet",
      "outputs": [
        {
          "name": "",
          "type": "address"
        }
      ],
      "payable": false,
      "stateMutability": "view",
      "type": "function"
    },
    {
      "constant": true,
      "inputs": [
        {
          "name": "",
          "type": "address"
        }
      ],
      "name": "allocations",
      "outputs": [
        {
          "name": "",
          "type": "uint256"
        }
      ],
      "payable": false,
      "stateMutability": "view",
      "type": "function"
    },
    {
      "constant": true,
      "inputs": [],
      "name": "startTime",
      "outputs": [
        {
          "name": "",
          "type": "uint256"
        }
      ],
      "payable": false,
      "stateMutability": "view",
      "type": "function"
    },
    {
      "constant": true,
      "inputs": [],
      "name": "isFinalized",
      "outputs": [
        {
          "name": "",
          "type": "bool"
        }
      ],
      "payable": false,
      "stateMutability": "view",
      "type": "function"
    },
    {
      "constant": true,
      "inputs": [],
      "name": "owner",
      "outputs": [
        {
          "name": "",
          "type": "address"
        }
      ],
      "payable": false,
      "stateMutability": "view",
      "type": "function"
    },
    {
      "constant": true,
      "inputs": [
        {
          "name": "",
          "type": "address"
        }
      ],
      "name": "whitelist",
      "outputs": [
        {
          "name": "",
          "type": "bool"
        }
      ],
      "payable": false,
      "stateMutability": "view",
      "type": "function"
    },
    {
      "constant": true,
      "inputs": [],
      "name": "tokenTimelock",
      "outputs": [
        {
          "name": "",
          "type": "address"
        }
      ],
      "payable": false,
      "stateMutability": "view",
      "type": "function"
    },
    {
      "constant": false,
      "inputs": [
        {
          "name": "newOwner",
          "type": "address"
        }
      ],
      "name": "transferOwnership",
      "outputs": [],
      "payable": false,
      "stateMutability": "nonpayable",
      "type": "function"
    },
    {
      "constant": true,
      "inputs": [],
      "name": "token",
      "outputs": [
        {
          "name": "",
          "type": "address"
        }
      ],
      "payable": false,
      "stateMutability": "view",
      "type": "function"
    },
    {
      "inputs": [
        {
          "name": "_token",
          "type": "address"
        },
        {
          "name": "_startTime",
          "type": "uint256"
        },
        {
          "name": "_endTime",
          "type": "uint256"
        },
        {
          "name": "_cap",
          "type": "uint256"
        },
        {
          "name": "_wallet",
          "type": "address"
        }
      ],
      "payable": false,
      "stateMutability": "nonpayable",
      "type": "constructor"
    },
    {
      "payable": true,
      "stateMutability": "payable",
      "type": "fallback"
    },
    {
      "anonymous": false,
      "inputs": [
        {
          "indexed": true,
          "name": "purchaser",
          "type": "address"
        },
        {
          "indexed": true,
          "name": "beneficiary",
          "type": "address"
        },
        {
          "indexed": false,
          "name": "value",
          "type": "uint256"
        },
        {
          "indexed": false,
          "name": "amount",
          "type": "uint256"
        }
      ],
      "name": "TokenPurchase",
      "type": "event"
    },
    {
      "anonymous": false,
      "inputs": [
        {
          "indexed": true,
          "name": "beneficiary",
          "type": "address"
        },
        {
          "indexed": false,
          "name": "amount",
          "type": "uint256"
        }
      ],
      "name": "TokenRedeem",
      "type": "event"
    },
    {
      "anonymous": false,
      "inputs": [],
      "name": "Finalized",
      "type": "event"
    },
    {
      "anonymous": false,
      "inputs": [
        {
          "indexed": true,
          "name": "purchaser",
          "type": "address"
        },
        {
          "indexed": true,
          "name": "beneficiary",
          "type": "address"
        },
        {
          "indexed": false,
          "name": "amount",
          "type": "uint256"
        }
      ],
      "name": "Refund",
      "type": "event"
    },
    {
      "anonymous": false,
      "inputs": [
        {
          "indexed": false,
          "name": "_amount",
          "type": "uint256"
        }
      ],
      "name": "TokensRefund",
      "type": "event"
    },
    {
      "anonymous": false,
      "inputs": [
        {
          "indexed": true,
          "name": "previousOwner",
          "type": "address"
        },
        {
          "indexed": true,
          "name": "newOwner",
          "type": "address"
        }
      ],
      "name": "OwnershipTransferred",
      "type": "event"
    },
    {
      "constant": true,
      "inputs": [],
      "name": "calculateBonusRate",
      "outputs": [
        {
          "name": "",
          "type": "uint256"
        }
      ],
      "payable": false,
      "stateMutability": "view",
      "type": "function"
    },
    {
      "constant": false,
      "inputs": [
        {
          "name": "_addresses",
          "type": "address[]"
        },
        {
          "name": "_status",
          "type": "bool"
        }
      ],
      "name": "whitelistAddresses",
      "outputs": [],
      "payable": false,
      "stateMutability": "nonpayable",
      "type": "function"
    },
    {
      "constant": false,
      "inputs": [
        {
          "name": "_tokenTimelock",
          "type": "address"
        }
      ],
      "name": "setTokenTimeLock",
      "outputs": [],
      "payable": false,
      "stateMutability": "nonpayable",
      "type": "function"
    },
    {
      "constant": false,
      "inputs": [
        {
          "name": "_whitelister",
          "type": "address"
        }
      ],
      "name": "setWhitelister",
      "outputs": [],
      "payable": false,
      "stateMutability": "nonpayable",
      "type": "function"
    },
    {
      "constant": false,
      "inputs": [
        {
          "name": "beneficiary",
          "type": "address"
        }
      ],
      "name": "buyTokens",
      "outputs": [],
      "payable": true,
      "stateMutability": "payable",
      "type": "function"
    },
    {
      "constant": false,
      "inputs": [],
      "name": "checkFinalize",
      "outputs": [],
      "payable": false,
      "stateMutability": "nonpayable",
      "type": "function"
    },
    {
      "constant": true,
      "inputs": [],
      "name": "hasEnded",
      "outputs": [
        {
          "name": "",
          "type": "bool"
        }
      ],
      "payable": false,
      "stateMutability": "view",
      "type": "function"
    },
    {
      "constant": false,
      "inputs": [],
      "name": "emergencyFinalize",
      "outputs": [],
      "payable": false,
      "stateMutability": "nonpayable",
      "type": "function"
    },
    {
      "constant": false,
      "inputs": [],
      "name": "refund",
      "outputs": [
        {
          "name": "",
          "type": "bool"
        }
      ],
      "payable": false,
      "stateMutability": "nonpayable",
      "type": "function"
    },
    {
      "constant": false,
      "inputs": [
        {
          "name": "_token",
          "type": "address"
        }
      ],
      "name": "claimTokens",
      "outputs": [],
      "payable": false,
      "stateMutability": "nonpayable",
      "type": "function"
    }
  ],
  "bytecode": "0x60606040526000600360006101000a81548160ff02191690831515021790555034156200002b57600080fd5b60405160a08062001dbc83398101604052808051906020019091908051906020019091908051906020019091908051906020019091908051906020019091905050336000806101000a81548173ffffffffffffffffffffffffffffffffffffffff021916908373ffffffffffffffffffffffffffffffffffffffff160217905550620000ca620002816401000000000262001abc176401000000009004565b8410151515620000d957600080fd5b838310151515620000e957600080fd5b600082111515620000f957600080fd5b8473ffffffffffffffffffffffffffffffffffffffff166373138e4f6000604051602001526040518163ffffffff167c0100000000000000000000000000000000000000000000000000000000028152600401602060405180830381600087803b15156200016657600080fd5b6102c65a03f115156200017857600080fd5b5050506040518051905082111515156200019157600080fd5b60008173ffffffffffffffffffffffffffffffffffffffff1614151515620001b857600080fd5b60008573ffffffffffffffffffffffffffffffffffffffff1614151515620001df57600080fd5b84600560006101000a81548173ffffffffffffffffffffffffffffffffffffffff021916908373ffffffffffffffffffffffffffffffffffffffff16021790555083600681905550826007819055508160048190555080600860006101000a81548173ffffffffffffffffffffffffffffffffffffffff021916908373ffffffffffffffffffffffffffffffffffffffff160217905550505050505062000289565b600042905090565b611b2380620002996000396000f300606060405260043610610133576000357c0100000000000000000000000000000000000000000000000000000000900463ffffffff16806322758a4a1461013e5780633197cbb614610193578063355274ea146101bc5780634042b66f146101e557806342c14cfe1461020e578063521eb2731461023757806352a9039c1461028c578063590e1ae3146102d957806362e7707e1461030657806378e979251461036b5780638d4e4083146103945780638da5cb5b146103c157806393ce9791146104165780639b19251a1461042b578063bba525161461047c578063c2161c88146104d1578063df8de3e7146104e6578063ec8ac4d81461051f578063ecb70fb71461054d578063f2fde38b1461057a578063f332556c146105b3578063f98f5b92146105ec578063fc0c546a14610625575b61013c3361067a565b005b341561014957600080fd5b610151610bca565b604051808273ffffffffffffffffffffffffffffffffffffffff1673ffffffffffffffffffffffffffffffffffffffff16815260200191505060405180910390f35b341561019e57600080fd5b6101a6610bf0565b6040518082815260200191505060405180910390f35b34156101c757600080fd5b6101cf610bf6565b6040518082815260200191505060405180910390f35b34156101f057600080fd5b6101f8610bfc565b6040518082815260200191505060405180910390f35b341561021957600080fd5b610221610c02565b6040518082815260200191505060405180910390f35b341561024257600080fd5b61024a610c11565b604051808273ffffffffffffffffffffffffffffffffffffffff1673ffffffffffffffffffffffffffffffffffffffff16815260200191505060405180910390f35b341561029757600080fd5b6102c3600480803573ffffffffffffffffffffffffffffffffffffffff16906020019091905050610c37565b6040518082815260200191505060405180910390f35b34156102e457600080fd5b6102ec610c4f565b604051808215151515815260200191505060405180910390f35b341561031157600080fd5b6103696004808035906020019082018035906020019080806020026020016040519081016040528093929190818152602001838360200280828437820191505050505050919080351515906020019091905050610f08565b005b341561037657600080fd5b61037e611057565b6040518082815260200191505060405180910390f35b341561039f57600080fd5b6103a761105d565b604051808215151515815260200191505060405180910390f35b34156103cc57600080fd5b6103d4611070565b604051808273ffffffffffffffffffffffffffffffffffffffff1673ffffffffffffffffffffffffffffffffffffffff16815260200191505060405180910390f35b341561042157600080fd5b610429611095565b005b341561043657600080fd5b610462600480803573ffffffffffffffffffffffffffffffffffffffff169060200190919050506110fa565b604051808215151515815260200191505060405180910390f35b341561048757600080fd5b61048f61111a565b604051808273ffffffffffffffffffffffffffffffffffffffff1673ffffffffffffffffffffffffffffffffffffffff16815260200191505060405180910390f35b34156104dc57600080fd5b6104e4611140565b005b34156104f157600080fd5b61051d600480803573ffffffffffffffffffffffffffffffffffffffff16906020019091905050611158565b005b61054b600480803573ffffffffffffffffffffffffffffffffffffffff1690602001909190505061067a565b005b341561055857600080fd5b61056061144d565b604051808215151515815260200191505060405180910390f35b341561058557600080fd5b6105b1600480803573ffffffffffffffffffffffffffffffffffffffff16906020019091905050611499565b005b34156105be57600080fd5b6105ea600480803573ffffffffffffffffffffffffffffffffffffffff169060200190919050506115ee565b005b34156105f757600080fd5b610623600480803573ffffffffffffffffffffffffffffffffffffffff1690602001909190505061168d565b005b341561063057600080fd5b61063861172c565b604051808273ffffffffffffffffffffffffffffffffffffffff1673ffffffffffffffffffffffffffffffffffffffff16815260200191505060405180910390f35b600080600080600260008673ffffffffffffffffffffffffffffffffffffffff1673ffffffffffffffffffffffffffffffffffffffff16815260200190815260200160002060009054906101000a900460ff1615156106d857600080fd5b60008573ffffffffffffffffffffffffffffffffffffffff16141515156106fe57600080fd5b610706611752565b151561071157600080fd5b34935061072b6009546004546118a790919063ffffffff16565b925082841115610739578293505b61074c84346118a790919063ffffffff16565b9150610757846118c0565b9050600560009054906101000a900473ffffffffffffffffffffffffffffffffffffffff1673ffffffffffffffffffffffffffffffffffffffff16633f4ba83a6040518163ffffffff167c0100000000000000000000000000000000000000000000000000000000028152600401600060405180830381600087803b15156107de57600080fd5b6102c65a03f115156107ef57600080fd5b505050610807846009546118e390919063ffffffff16565b60098190555061081684611901565b60008211156108c5573373ffffffffffffffffffffffffffffffffffffffff166108fc839081150290604051600060405180830381858888f19350505050151561085f57600080fd5b8473ffffffffffffffffffffffffffffffffffffffff163373ffffffffffffffffffffffffffffffffffffffff167ff40cc8c1a1d17359049ba500cfc894596a692cffc9d03943cd92ec2e159cf6ae846040518082815260200191505060405180910390a35b8473ffffffffffffffffffffffffffffffffffffffff163373ffffffffffffffffffffffffffffffffffffffff167f623b3804fa71d67900d064613da8f94b9617215ee90799290593e1745087ad188684604051808381526020018281526020019250505060405180910390a3600560009054906101000a900473ffffffffffffffffffffffffffffffffffffffff1673ffffffffffffffffffffffffffffffffffffffff1663a9059cbb600a60009054906101000a900473ffffffffffffffffffffffffffffffffffffffff16836000604051602001526040518363ffffffff167c0100000000000000000000000000000000000000000000000000000000028152600401808373ffffffffffffffffffffffffffffffffffffffff1673ffffffffffffffffffffffffffffffffffffffff16815260200182815260200192505050602060405180830381600087803b1515610a2157600080fd5b6102c65a03f11515610a3257600080fd5b5050506040518051905050600a60009054906101000a900473ffffffffffffffffffffffffffffffffffffffff1673ffffffffffffffffffffffffffffffffffffffff166347e7ef2486836040518363ffffffff167c0100000000000000000000000000000000000000000000000000000000028152600401808373ffffffffffffffffffffffffffffffffffffffff1673ffffffffffffffffffffffffffffffffffffffff16815260200182815260200192505050600060405180830381600087803b1515610b0157600080fd5b6102c65a03f11515610b1257600080fd5b505050600560009054906101000a900473ffffffffffffffffffffffffffffffffffffffff1673ffffffffffffffffffffffffffffffffffffffff16638456cb596040518163ffffffff167c0100000000000000000000000000000000000000000000000000000000028152600401600060405180830381600087803b1515610b9a57600080fd5b6102c65a03f11515610bab57600080fd5b5050506004546009541415610bc357610bc2611140565b5b5050505050565b600b60009054906101000a900473ffffffffffffffffffffffffffffffffffffffff1681565b60075481565b60045481565b60095481565b600080611a5e90508091505090565b600860009054906101000a900473ffffffffffffffffffffffffffffffffffffffff1681565b60016020528060005260406000206000915090505481565b6000806000809054906101000a900473ffffffffffffffffffffffffffffffffffffffff1673ffffffffffffffffffffffffffffffffffffffff163373ffffffffffffffffffffffffffffffffffffffff16141515610cad57600080fd5b610cb561144d565b1515610cc057600080fd5b600560009054906101000a900473ffffffffffffffffffffffffffffffffffffffff1673ffffffffffffffffffffffffffffffffffffffff166370a08231306000604051602001526040518263ffffffff167c0100000000000000000000000000000000000000000000000000000000028152600401808273ffffffffffffffffffffffffffffffffffffffff1673ffffffffffffffffffffffffffffffffffffffff168152602001915050602060405180830381600087803b1515610d8557600080fd5b6102c65a03f11515610d9657600080fd5b5050506040518051905090506000811415610db45760009150610f04565b600560009054906101000a900473ffffffffffffffffffffffffffffffffffffffff1673ffffffffffffffffffffffffffffffffffffffff1663a9059cbb6000809054906101000a900473ffffffffffffffffffffffffffffffffffffffff16836000604051602001526040518363ffffffff167c0100000000000000000000000000000000000000000000000000000000028152600401808373ffffffffffffffffffffffffffffffffffffffff1673ffffffffffffffffffffffffffffffffffffffff16815260200182815260200192505050602060405180830381600087803b1515610ea257600080fd5b6102c65a03f11515610eb357600080fd5b505050604051805190501515610ec857600080fd5b7ff3d11fa0b0c8ecc03cfb3e9730f3e26aab44a500bbd00c264dd40f331fd68a48816040518082815260200191505060405180910390a1600191505b5090565b600080600b60009054906101000a900473ffffffffffffffffffffffffffffffffffffffff1673ffffffffffffffffffffffffffffffffffffffff163373ffffffffffffffffffffffffffffffffffffffff16141515610f6757600080fd5b600091505b8351821015611051578382815181101515610f8357fe5b906020019060200201519050821515600260008373ffffffffffffffffffffffffffffffffffffffff1673ffffffffffffffffffffffffffffffffffffffff16815260200190815260200160002060009054906101000a900460ff1615151415610fec57611044565b82600260008373ffffffffffffffffffffffffffffffffffffffff1673ffffffffffffffffffffffffffffffffffffffff16815260200190815260200160002060006101000a81548160ff0219169083151502179055505b8180600101925050610f6c565b50505050565b60065481565b600360009054906101000a900460ff1681565b6000809054906101000a900473ffffffffffffffffffffffffffffffffffffffff1681565b6000809054906101000a900473ffffffffffffffffffffffffffffffffffffffff1673ffffffffffffffffffffffffffffffffffffffff163373ffffffffffffffffffffffffffffffffffffffff161415156110f057600080fd5b6110f8611966565b565b60026020528060005260406000206000915054906101000a900460ff1681565b600a60009054906101000a900473ffffffffffffffffffffffffffffffffffffffff1681565b61114861144d565b1561115657611155611966565b5b565b6000806000809054906101000a900473ffffffffffffffffffffffffffffffffffffffff1673ffffffffffffffffffffffffffffffffffffffff163373ffffffffffffffffffffffffffffffffffffffff161415156111b657600080fd5b6111be61144d565b15156111c957600080fd5b60008373ffffffffffffffffffffffffffffffffffffffff161415611265576000809054906101000a900473ffffffffffffffffffffffffffffffffffffffff1673ffffffffffffffffffffffffffffffffffffffff166108fc3073ffffffffffffffffffffffffffffffffffffffff16319081150290604051600060405180830381858888f19350505050151561126057600080fd5b611448565b8291508173ffffffffffffffffffffffffffffffffffffffff166370a08231306000604051602001526040518263ffffffff167c0100000000000000000000000000000000000000000000000000000000028152600401808273ffffffffffffffffffffffffffffffffffffffff1673ffffffffffffffffffffffffffffffffffffffff168152602001915050602060405180830381600087803b151561130b57600080fd5b6102c65a03f1151561131c57600080fd5b5050506040518051905090508173ffffffffffffffffffffffffffffffffffffffff1663a9059cbb6000809054906101000a900473ffffffffffffffffffffffffffffffffffffffff16836000604051602001526040518363ffffffff167c0100000000000000000000000000000000000000000000000000000000028152600401808373ffffffffffffffffffffffffffffffffffffffff1673ffffffffffffffffffffffffffffffffffffffff16815260200182815260200192505050602060405180830381600087803b15156113f457600080fd5b6102c65a03f1151561140557600080fd5b50505060405180519050507ff3d11fa0b0c8ecc03cfb3e9730f3e26aab44a500bbd00c264dd40f331fd68a48816040518082815260200191505060405180910390a15b505050565b6000806000600360009054906101000a900460ff16156114705760019250611494565b60045460095410159150600754611485611abc565b11905080806114915750815b92505b505090565b6000809054906101000a900473ffffffffffffffffffffffffffffffffffffffff1673ffffffffffffffffffffffffffffffffffffffff163373ffffffffffffffffffffffffffffffffffffffff161415156114f457600080fd5b600073ffffffffffffffffffffffffffffffffffffffff168173ffffffffffffffffffffffffffffffffffffffff161415151561153057600080fd5b8073ffffffffffffffffffffffffffffffffffffffff166000809054906101000a900473ffffffffffffffffffffffffffffffffffffffff1673ffffffffffffffffffffffffffffffffffffffff167f8be0079c531659141344cd1fd0a4f28419497f9722a3daafe3b4186f6b6457e060405160405180910390a3806000806101000a81548173ffffffffffffffffffffffffffffffffffffffff021916908373ffffffffffffffffffffffffffffffffffffffff16021790555050565b6000809054906101000a900473ffffffffffffffffffffffffffffffffffffffff1673ffffffffffffffffffffffffffffffffffffffff163373ffffffffffffffffffffffffffffffffffffffff1614151561164957600080fd5b80600a60006101000a81548173ffffffffffffffffffffffffffffffffffffffff021916908373ffffffffffffffffffffffffffffffffffffffff16021790555050565b6000809054906101000a900473ffffffffffffffffffffffffffffffffffffffff1673ffffffffffffffffffffffffffffffffffffffff163373ffffffffffffffffffffffffffffffffffffffff161415156116e857600080fd5b80600b60006101000a81548173ffffffffffffffffffffffffffffffffffffffff021916908373ffffffffffffffffffffffffffffffffffffffff16021790555050565b600560009054906101000a900473ffffffffffffffffffffffffffffffffffffffff1681565b600080600080611760611140565b600360009054906101000a900460ff1615151561177c57600080fd5b600654611787611abc565b1015801561179e575060075461179b611abc565b11155b9250600034141591506000600560009054906101000a900473ffffffffffffffffffffffffffffffffffffffff1673ffffffffffffffffffffffffffffffffffffffff166370a08231306000604051602001526040518263ffffffff167c0100000000000000000000000000000000000000000000000000000000028152600401808273ffffffffffffffffffffffffffffffffffffffff1673ffffffffffffffffffffffffffffffffffffffff168152602001915050602060405180830381600087803b151561186e57600080fd5b6102c65a03f1151561187f57600080fd5b505050604051805190501190508280156118965750815b801561189f5750805b935050505090565b60008282111515156118b557fe5b818303905092915050565b60006118dc6118cd610c02565b83611ac490919063ffffffff16565b9050919050565b60008082840190508381101515156118f757fe5b8091505092915050565b600860009054906101000a900473ffffffffffffffffffffffffffffffffffffffff1673ffffffffffffffffffffffffffffffffffffffff166108fc829081150290604051600060405180830381858888f19350505050151561196357600080fd5b50565b600360009054906101000a900460ff1615151561198257600080fd5b7f6823b073d48d6e3a7d385eeb601452d680e74bb46afe3255a7d778f3a9b1768160405160405180910390a16001600360006101000a81548160ff021916908315150217905550600560009054906101000a900473ffffffffffffffffffffffffffffffffffffffff1673ffffffffffffffffffffffffffffffffffffffff1663f2fde38b6000809054906101000a900473ffffffffffffffffffffffffffffffffffffffff166040518263ffffffff167c0100000000000000000000000000000000000000000000000000000000028152600401808273ffffffffffffffffffffffffffffffffffffffff1673ffffffffffffffffffffffffffffffffffffffff168152602001915050600060405180830381600087803b1515611aa657600080fd5b6102c65a03f11515611ab757600080fd5b505050565b600042905090565b60008082840290506000841480611ae55750828482811515611ae257fe5b04145b1515611aed57fe5b80915050929150505600a165627a7a723058200412eaa424d41e05f8c22f65b27bf77d9e53d0481360793cc3bdc088d1dc868c0029",
  "source": "pragma solidity ^0.4.18;\n\nimport 'zeppelin-solidity/contracts/ownership/Ownable.sol';\nimport 'zeppelin-solidity/contracts/math/SafeMath.sol';\nimport 'zeppelin-solidity/contracts/token/ERC20Basic.sol';\nimport './MenloTokenTimelock.sol';\nimport './MenloToken.sol';\n\n/**\n * @title MenloTokenPresale\n * @dev Modified from OpenZeppelin's Crowdsale.sol\n * CappedCrowdsale.sol, and FinalizableCrowdsale.sol\n * Uses PausableToken rather than MintableToken.\n *\n * Requires that tokens for sale (entire supply minus team's portion) be deposited.\n */\ncontract MenloTokenPresale is Ownable {\n  using SafeMath for uint256;\n\n  // Token allocations\n  mapping (address => uint256) public allocations;\n\n  // Whitelisted investors\n  mapping (address => bool) public whitelist;\n\n  // manual early close flag\n  bool public isFinalized = false;\n\n  // cap for crowdsale in wei\n  uint256 public cap;\n\n  // The token being sold\n  MenloToken public token;\n\n  // start and end timestamps where contributions are allowed (both inclusive)\n  uint256 public startTime;\n  uint256 public endTime;\n\n  // address where funds are collected\n  address public wallet;\n\n  // amount of raised money in wei\n  uint256 public weiRaised;\n\n  /**\n   * @dev Throws if called by any account other than the whitelister.\n   */\n  modifier onlyWhitelister() {\n    require(msg.sender == whitelister);\n    _;\n  }\n\n  /**\n   * event for token purchase logging\n   * @param purchaser who paid for the tokens\n   * @param beneficiary who got the tokens\n   * @param value weis paid for purchase\n   * @param amount amount of tokens purchased\n   */\n  event TokenPurchase(address indexed purchaser, address indexed beneficiary, uint256 value, uint256 amount);\n\n  /**\n   * event for token redemption logging\n   * @param beneficiary who got the tokens\n   * @param amount amount of tokens redeemed\n   */\n  event TokenRedeem(address indexed beneficiary, uint256 amount);\n\n  // termination early or otherwise\n  event Finalized();\n\n  /**\n   * event refund of excess ETH if purchase is above the cap\n   * @param amount amount of ETH (in wei) refunded\n   */\n  event Refund(address indexed purchaser, address indexed beneficiary, uint256 amount);\n\n  function MenloTokenPresale(\n      address _token,\n      uint256 _startTime,\n      uint256 _endTime,\n      uint256 _cap,\n      address _wallet\n  ) public {\n    require(_startTime >= getBlockTimestamp());\n    require(_endTime >= _startTime);\n    require(_cap > 0);\n    require(_cap <= MenloToken(_token).PRESALE_SUPPLY());\n    require(_wallet != 0x0);\n    require(_token != 0x0);\n\n    token = MenloToken(_token);\n    startTime = _startTime;\n    endTime = _endTime;\n    cap = _cap;\n    wallet = _wallet;\n  }\n\n  // fallback function can be used to buy tokens\n  function () public payable {\n    buyTokens(msg.sender);\n  }\n\n  // 1 ETH = 6,750 MET\n  function calculateBonusRate() public view returns (uint256) {\n    uint256 bonusRate = 6750;\n\n    return bonusRate;\n  }\n\n  /// @notice interface for founders to whitelist investors\n  /// @param _addresses array of investors\n  /// @param _status enable or disable\n  function whitelistAddresses(address[] _addresses, bool _status) public onlyWhitelister {\n    for (uint256 i = 0; i < _addresses.length; i++) {\n        address investorAddress = _addresses[i];\n        if (whitelist[investorAddress] == _status) {\n          continue;\n        }\n        whitelist[investorAddress] = _status;\n    }\n   }\n\n   function ethToTokens(uint256 ethAmount) internal view returns (uint256) {\n    return ethAmount.mul(calculateBonusRate());\n   }\n\n   address public tokenTimelock;\n\n   function setTokenTimeLock(address _tokenTimelock) public onlyOwner {\n     tokenTimelock = _tokenTimelock;\n   }\n\n  address public whitelister;\n\n   function setWhitelister(address _whitelister) public onlyOwner {\n      whitelister = _whitelister;\n   }\n\n  // low level token purchase function\n  // caution: tokens must be redeemed by beneficiary address\n  function buyTokens(address beneficiary) public payable {\n    require(whitelist[beneficiary]);\n    require(beneficiary != 0x0);\n    require(validPurchase());\n\n    uint256 weiAmount = msg.value;\n\n    uint256 remainingToFund = cap.sub(weiRaised);\n    if (weiAmount > remainingToFund) {\n      weiAmount = remainingToFund;\n    }\n    uint256 weiToReturn = msg.value.sub(weiAmount);\n    uint256 tokens = ethToTokens(weiAmount);\n\n    token.unpause();\n    weiRaised = weiRaised.add(weiAmount);\n\n    forwardFunds(weiAmount);\n    if (weiToReturn > 0) {\n      msg.sender.transfer(weiToReturn);\n      Refund(msg.sender, beneficiary, weiToReturn);\n    }\n    // send tokens to MenloTokenTimelock\n    TokenPurchase(msg.sender, beneficiary, weiAmount, tokens);\n    token.transfer(tokenTimelock, tokens);\n    MenloTokenTimelock(tokenTimelock).deposit(beneficiary, tokens);\n    token.pause();\n\n    if (weiRaised == cap) {\n      checkFinalize();\n    }\n  }\n\n  // send ether to the fund collection wallet\n  // override to create custom fund forwarding mechanisms\n  function forwardFunds(uint256 amount) internal {\n    wallet.transfer(amount);\n  }\n\n  function checkFinalize() public {\n    if (hasEnded()) {\n      finalize();\n    }\n  }\n\n  // @return true if the transaction can buy tokens\n  function validPurchase() internal returns (bool) {\n    checkFinalize();\n    require(!isFinalized);\n    bool withinPeriod = getBlockTimestamp() >= startTime && getBlockTimestamp() <= endTime;\n    bool nonZeroPurchase = msg.value != 0;\n    bool contractHasTokens = token.balanceOf(this) > 0;\n    return withinPeriod && nonZeroPurchase && contractHasTokens;\n  }\n\n  // @return true if crowdsale event has ended or cap reached\n  function hasEnded() public constant returns (bool) {\n    if (isFinalized) {\n      return true;\n    }\n    bool capReached = weiRaised >= cap;\n    bool passedEndTime = getBlockTimestamp() > endTime;\n    return passedEndTime || capReached;\n  }\n\n  function getBlockTimestamp() internal view returns (uint256) {\n    return block.timestamp;\n  }\n\n  function emergencyFinalize() public onlyOwner {\n    finalize();\n  }\n  // @dev does not require that crowdsale `hasEnded()` to leave safegaurd\n  // in place if ETH rises in price too much during crowdsale.\n  // Allows team to close early if cap is exceeded in USD in this event.\n  function finalize() internal {\n    require(!isFinalized);\n    Finalized();\n    isFinalized = true;\n    token.transferOwnership(owner);\n  }\n\n  // Allows the owner to take back the tokens that are assigned to the sale contract.\n  event TokensRefund(uint256 _amount);\n  function refund() external onlyOwner returns (bool) {\n      require(hasEnded());\n      uint256 tokens = token.balanceOf(address(this));\n\n      if (tokens == 0) {\n         return false;\n      }\n\n      require(token.transfer(owner, tokens));\n\n      TokensRefund(tokens);\n\n      return true;\n   }\n\n  function claimTokens(address _token) public onlyOwner {\n    require(hasEnded());\n    if (_token == 0x0) {\n        owner.transfer(this.balance);\n        return;\n    }\n\n    ERC20Basic refundToken = ERC20Basic(_token);\n    uint256 balance = refundToken.balanceOf(this);\n    refundToken.transfer(owner, balance);\n    TokensRefund(balance);\n  }\n}\n",
  "sourcePath": "/home/vyper/Ethereum/Menlo/menlo-token-crowdsale/contracts/MenloTokenPresale.sol",
  "compiler": {
    "name": "solc",
    "version": "0.4.19+commit.c4cbbb05.Emscripten.clang"
  },
  "schemaVersion": "1.0.1",
  "updatedAt": "2018-03-05T03:39:02.106Z"
}