{
  "contractName": "MenloTokenSale",
  "abi": [
    {
      "constant": true,
      "inputs": [],
      "name": "endTime",
      "outputs": [
        {
          "name": "",
          "type": "uint256"
        }
      ],
      "payable": false,
      "stateMutability": "view",
      "type": "function"
    },
    {
      "constant": true,
      "inputs": [],
      "name": "cap",
      "outputs": [
        {
          "name": "",
          "type": "uint256"
        }
      ],
      "payable": false,
      "stateMutability": "view",
      "type": "function"
    },
    {
      "constant": true,
      "inputs": [],
      "name": "weiRaised",
      "outputs": [
        {
          "name": "",
          "type": "uint256"
        }
      ],
      "payable": false,
      "stateMutability": "view",
      "type": "function"
    },
    {
      "constant": true,
      "inputs": [],
      "name": "wallet",
      "outputs": [
        {
          "name": "",
          "type": "address"
        }
      ],
      "payable": false,
      "stateMutability": "view",
      "type": "function"
    },
    {
      "constant": true,
      "inputs": [
        {
          "name": "",
          "type": "address"
        }
      ],
      "name": "allocations",
      "outputs": [
        {
          "name": "",
          "type": "uint256"
        }
      ],
      "payable": false,
      "stateMutability": "view",
      "type": "function"
    },
    {
      "constant": true,
      "inputs": [],
      "name": "startTime",
      "outputs": [
        {
          "name": "",
          "type": "uint256"
        }
      ],
      "payable": false,
      "stateMutability": "view",
      "type": "function"
    },
    {
      "constant": true,
      "inputs": [],
      "name": "isFinalized",
      "outputs": [
        {
          "name": "",
          "type": "bool"
        }
      ],
      "payable": false,
      "stateMutability": "view",
      "type": "function"
    },
    {
      "constant": true,
      "inputs": [],
      "name": "owner",
      "outputs": [
        {
          "name": "",
          "type": "address"
        }
      ],
      "payable": false,
      "stateMutability": "view",
      "type": "function"
    },
    {
      "constant": true,
      "inputs": [
        {
          "name": "",
          "type": "address"
        }
      ],
      "name": "whitelist",
      "outputs": [
        {
          "name": "",
          "type": "bool"
        }
      ],
      "payable": false,
      "stateMutability": "view",
      "type": "function"
    },
    {
      "constant": false,
      "inputs": [
        {
          "name": "newOwner",
          "type": "address"
        }
      ],
      "name": "transferOwnership",
      "outputs": [],
      "payable": false,
      "stateMutability": "nonpayable",
      "type": "function"
    },
    {
      "constant": true,
      "inputs": [],
      "name": "token",
      "outputs": [
        {
          "name": "",
          "type": "address"
        }
      ],
      "payable": false,
      "stateMutability": "view",
      "type": "function"
    },
    {
      "inputs": [
        {
          "name": "_token",
          "type": "address"
        },
        {
          "name": "_startTime",
          "type": "uint256"
        },
        {
          "name": "_endTime",
          "type": "uint256"
        },
        {
          "name": "_cap",
          "type": "uint256"
        },
        {
          "name": "_wallet",
          "type": "address"
        }
      ],
      "payable": false,
      "stateMutability": "nonpayable",
      "type": "constructor"
    },
    {
      "payable": true,
      "stateMutability": "payable",
      "type": "fallback"
    },
    {
      "anonymous": false,
      "inputs": [
        {
          "indexed": true,
          "name": "purchaser",
          "type": "address"
        },
        {
          "indexed": true,
          "name": "beneficiary",
          "type": "address"
        },
        {
          "indexed": false,
          "name": "value",
          "type": "uint256"
        },
        {
          "indexed": false,
          "name": "amount",
          "type": "uint256"
        }
      ],
      "name": "TokenPurchase",
      "type": "event"
    },
    {
      "anonymous": false,
      "inputs": [
        {
          "indexed": true,
          "name": "beneficiary",
          "type": "address"
        },
        {
          "indexed": false,
          "name": "amount",
          "type": "uint256"
        }
      ],
      "name": "TokenRedeem",
      "type": "event"
    },
    {
      "anonymous": false,
      "inputs": [],
      "name": "Finalized",
      "type": "event"
    },
    {
      "anonymous": false,
      "inputs": [
        {
          "indexed": true,
          "name": "purchaser",
          "type": "address"
        },
        {
          "indexed": true,
          "name": "beneficiary",
          "type": "address"
        },
        {
          "indexed": false,
          "name": "amount",
          "type": "uint256"
        }
      ],
      "name": "Refund",
      "type": "event"
    },
    {
      "anonymous": false,
      "inputs": [
        {
          "indexed": false,
          "name": "_amount",
          "type": "uint256"
        }
      ],
      "name": "TokensRefund",
      "type": "event"
    },
    {
      "anonymous": false,
      "inputs": [
        {
          "indexed": true,
          "name": "previousOwner",
          "type": "address"
        },
        {
          "indexed": true,
          "name": "newOwner",
          "type": "address"
        }
      ],
      "name": "OwnershipTransferred",
      "type": "event"
    },
    {
      "constant": true,
      "inputs": [],
      "name": "calculateBonusRate",
      "outputs": [
        {
          "name": "",
          "type": "uint256"
        }
      ],
      "payable": false,
      "stateMutability": "view",
      "type": "function"
    },
    {
      "constant": false,
      "inputs": [
        {
          "name": "_addresses",
          "type": "address[]"
        },
        {
          "name": "_status",
          "type": "bool"
        }
      ],
      "name": "whitelistAddresses",
      "outputs": [],
      "payable": false,
      "stateMutability": "nonpayable",
      "type": "function"
    },
    {
      "constant": false,
      "inputs": [
        {
          "name": "beneficiary",
          "type": "address"
        }
      ],
      "name": "buyTokens",
      "outputs": [],
      "payable": true,
      "stateMutability": "payable",
      "type": "function"
    },
    {
      "constant": false,
      "inputs": [],
      "name": "checkFinalize",
      "outputs": [],
      "payable": false,
      "stateMutability": "nonpayable",
      "type": "function"
    },
    {
      "constant": true,
      "inputs": [],
      "name": "hasEnded",
      "outputs": [
        {
          "name": "",
          "type": "bool"
        }
      ],
      "payable": false,
      "stateMutability": "view",
      "type": "function"
    },
    {
      "constant": false,
      "inputs": [],
      "name": "emergencyFinalize",
      "outputs": [],
      "payable": false,
      "stateMutability": "nonpayable",
      "type": "function"
    },
    {
      "constant": false,
      "inputs": [],
      "name": "refund",
      "outputs": [
        {
          "name": "",
          "type": "bool"
        }
      ],
      "payable": false,
      "stateMutability": "nonpayable",
      "type": "function"
    },
    {
      "constant": false,
      "inputs": [
        {
          "name": "_token",
          "type": "address"
        }
      ],
      "name": "claimTokens",
      "outputs": [],
      "payable": false,
      "stateMutability": "nonpayable",
      "type": "function"
    }
  ],
  "bytecode": "0x60606040526000600360006101000a81548160ff02191690831515021790555034156200002b57600080fd5b60405160a08062001b2a83398101604052808051906020019091908051906020019091908051906020019091908051906020019091908051906020019091905050336000806101000a81548173ffffffffffffffffffffffffffffffffffffffff021916908373ffffffffffffffffffffffffffffffffffffffff160217905550620000ca620002d56401000000000262001680176401000000009004565b8410151515620000d957600080fd5b838310151515620000e957600080fd5b600082111515620000f957600080fd5b8473ffffffffffffffffffffffffffffffffffffffff1663ef9f60236000604051602001526040518163ffffffff167c0100000000000000000000000000000000000000000000000000000000028152600401602060405180830381600087803b15156200016657600080fd5b6102c65a03f115156200017857600080fd5b5050506040518051905082111515156200019157600080fd5b60008173ffffffffffffffffffffffffffffffffffffffff1614151515620001b857600080fd5b60008573ffffffffffffffffffffffffffffffffffffffff1614151515620001df57600080fd5b84600560006101000a81548173ffffffffffffffffffffffffffffffffffffffff021916908373ffffffffffffffffffffffffffffffffffffffff16021790555083600681905550826007819055508160048190555080600860006101000a81548173ffffffffffffffffffffffffffffffffffffffff021916908373ffffffffffffffffffffffffffffffffffffffff160217905550610e1060065401600a8190555062093a80600a5401600b8190555062093a80600b5401600c8190555062093a80600c5401600d8190555062093a80600d5401600e819055506301e13380600e5401600f819055505050505050620002dd565b600042905090565b61183d80620002ed6000396000f300606060405260043610610107576000357c0100000000000000000000000000000000000000000000000000000000900463ffffffff1680633197cbb614610112578063355274ea1461013b5780634042b66f1461016457806342c14cfe1461018d578063521eb273146101b657806352a9039c1461020b578063590e1ae31461025857806362e7707e1461028557806378e97925146102ea5780638d4e4083146103135780638da5cb5b1461034057806393ce9791146103955780639b19251a146103aa578063c2161c88146103fb578063df8de3e714610410578063ec8ac4d814610449578063ecb70fb714610477578063f2fde38b146104a4578063fc0c546a146104dd575b61011033610532565b005b341561011d57600080fd5b6101256109d6565b6040518082815260200191505060405180910390f35b341561014657600080fd5b61014e6109dc565b6040518082815260200191505060405180910390f35b341561016f57600080fd5b6101776109e2565b6040518082815260200191505060405180910390f35b341561019857600080fd5b6101a06109e8565b6040518082815260200191505060405180910390f35b34156101c157600080fd5b6101c9610a90565b604051808273ffffffffffffffffffffffffffffffffffffffff1673ffffffffffffffffffffffffffffffffffffffff16815260200191505060405180910390f35b341561021657600080fd5b610242600480803573ffffffffffffffffffffffffffffffffffffffff16906020019091905050610ab6565b6040518082815260200191505060405180910390f35b341561026357600080fd5b61026b610ace565b604051808215151515815260200191505060405180910390f35b341561029057600080fd5b6102e86004808035906020019082018035906020019080806020026020016040519081016040528093929190818152602001838360200280828437820191505050505050919080351515906020019091905050610d87565b005b34156102f557600080fd5b6102fd610ed5565b6040518082815260200191505060405180910390f35b341561031e57600080fd5b610326610edb565b604051808215151515815260200191505060405180910390f35b341561034b57600080fd5b610353610eee565b604051808273ffffffffffffffffffffffffffffffffffffffff1673ffffffffffffffffffffffffffffffffffffffff16815260200191505060405180910390f35b34156103a057600080fd5b6103a8610f13565b005b34156103b557600080fd5b6103e1600480803573ffffffffffffffffffffffffffffffffffffffff16906020019091905050610f78565b604051808215151515815260200191505060405180910390f35b341561040657600080fd5b61040e610f98565b005b341561041b57600080fd5b610447600480803573ffffffffffffffffffffffffffffffffffffffff16906020019091905050610fb0565b005b610475600480803573ffffffffffffffffffffffffffffffffffffffff16906020019091905050610532565b005b341561048257600080fd5b61048a6112a5565b604051808215151515815260200191505060405180910390f35b34156104af57600080fd5b6104db600480803573ffffffffffffffffffffffffffffffffffffffff169060200190919050506112f1565b005b34156104e857600080fd5b6104f0611446565b604051808273ffffffffffffffffffffffffffffffffffffffff1673ffffffffffffffffffffffffffffffffffffffff16815260200191505060405180910390f35b600080600080600260008673ffffffffffffffffffffffffffffffffffffffff1673ffffffffffffffffffffffffffffffffffffffff16815260200190815260200160002060009054906101000a900460ff16151561059057600080fd5b60008573ffffffffffffffffffffffffffffffffffffffff16141515156105b657600080fd5b6105be61146c565b15156105c957600080fd5b3493506105e36009546004546115c190919063ffffffff16565b9250828411156105f1578293505b61060484346115c190919063ffffffff16565b915061060f846115da565b9050600560009054906101000a900473ffffffffffffffffffffffffffffffffffffffff1673ffffffffffffffffffffffffffffffffffffffff16633f4ba83a6040518163ffffffff167c0100000000000000000000000000000000000000000000000000000000028152600401600060405180830381600087803b151561069657600080fd5b6102c65a03f115156106a757600080fd5b5050506106bf846009546115fd90919063ffffffff16565b6009819055506106ce8461161b565b600082111561077d573373ffffffffffffffffffffffffffffffffffffffff166108fc839081150290604051600060405180830381858888f19350505050151561071757600080fd5b8473ffffffffffffffffffffffffffffffffffffffff163373ffffffffffffffffffffffffffffffffffffffff167ff40cc8c1a1d17359049ba500cfc894596a692cffc9d03943cd92ec2e159cf6ae846040518082815260200191505060405180910390a35b8473ffffffffffffffffffffffffffffffffffffffff163373ffffffffffffffffffffffffffffffffffffffff167f623b3804fa71d67900d064613da8f94b9617215ee90799290593e1745087ad188684604051808381526020018281526020019250505060405180910390a3600560009054906101000a900473ffffffffffffffffffffffffffffffffffffffff1673ffffffffffffffffffffffffffffffffffffffff1663a9059cbb86836000604051602001526040518363ffffffff167c0100000000000000000000000000000000000000000000000000000000028152600401808373ffffffffffffffffffffffffffffffffffffffff1673ffffffffffffffffffffffffffffffffffffffff16815260200182815260200192505050602060405180830381600087803b15156108b757600080fd5b6102c65a03f115156108c857600080fd5b5050506040518051905050600560009054906101000a900473ffffffffffffffffffffffffffffffffffffffff1673ffffffffffffffffffffffffffffffffffffffff16638456cb596040518163ffffffff167c0100000000000000000000000000000000000000000000000000000000028152600401600060405180830381600087803b151561095857600080fd5b6102c65a03f1151561096957600080fd5b5050508473ffffffffffffffffffffffffffffffffffffffff167fbdb57edcb6b7ce9397b9a0605c37466c6840e9df7a6a10356ff8ba66467e714a826040518082815260200191505060405180910390a260045460095414156109cf576109ce610f98565b5b5050505050565b60075481565b60045481565b60095481565b600080600061138891506109fa611680565b905060065481118015610a0f5750600a548111155b15610a1e576119649150610a88565b600b5481111515610a33576117709150610a87565b600c5481111515610a48576116769150610a86565b600d5481111515610a5d5761157c9150610a85565b600e5481111515610a72576114829150610a84565b600f5481111515610a835761138891505b5b5b5b5b5b819250505090565b600860009054906101000a900473ffffffffffffffffffffffffffffffffffffffff1681565b60016020528060005260406000206000915090505481565b6000806000809054906101000a900473ffffffffffffffffffffffffffffffffffffffff1673ffffffffffffffffffffffffffffffffffffffff163373ffffffffffffffffffffffffffffffffffffffff16141515610b2c57600080fd5b610b346112a5565b1515610b3f57600080fd5b600560009054906101000a900473ffffffffffffffffffffffffffffffffffffffff1673ffffffffffffffffffffffffffffffffffffffff166370a08231306000604051602001526040518263ffffffff167c0100000000000000000000000000000000000000000000000000000000028152600401808273ffffffffffffffffffffffffffffffffffffffff1673ffffffffffffffffffffffffffffffffffffffff168152602001915050602060405180830381600087803b1515610c0457600080fd5b6102c65a03f11515610c1557600080fd5b5050506040518051905090506000811415610c335760009150610d83565b600560009054906101000a900473ffffffffffffffffffffffffffffffffffffffff1673ffffffffffffffffffffffffffffffffffffffff1663a9059cbb6000809054906101000a900473ffffffffffffffffffffffffffffffffffffffff16836000604051602001526040518363ffffffff167c0100000000000000000000000000000000000000000000000000000000028152600401808373ffffffffffffffffffffffffffffffffffffffff1673ffffffffffffffffffffffffffffffffffffffff16815260200182815260200192505050602060405180830381600087803b1515610d2157600080fd5b6102c65a03f11515610d3257600080fd5b505050604051805190501515610d4757600080fd5b7ff3d11fa0b0c8ecc03cfb3e9730f3e26aab44a500bbd00c264dd40f331fd68a48816040518082815260200191505060405180910390a1600191505b5090565b6000806000809054906101000a900473ffffffffffffffffffffffffffffffffffffffff1673ffffffffffffffffffffffffffffffffffffffff163373ffffffffffffffffffffffffffffffffffffffff16141515610de557600080fd5b600091505b8351821015610ecf578382815181101515610e0157fe5b906020019060200201519050821515600260008373ffffffffffffffffffffffffffffffffffffffff1673ffffffffffffffffffffffffffffffffffffffff16815260200190815260200160002060009054906101000a900460ff1615151415610e6a57610ec2565b82600260008373ffffffffffffffffffffffffffffffffffffffff1673ffffffffffffffffffffffffffffffffffffffff16815260200190815260200160002060006101000a81548160ff0219169083151502179055505b8180600101925050610dea565b50505050565b60065481565b600360009054906101000a900460ff1681565b6000809054906101000a900473ffffffffffffffffffffffffffffffffffffffff1681565b6000809054906101000a900473ffffffffffffffffffffffffffffffffffffffff1673ffffffffffffffffffffffffffffffffffffffff163373ffffffffffffffffffffffffffffffffffffffff16141515610f6e57600080fd5b610f76611688565b565b60026020528060005260406000206000915054906101000a900460ff1681565b610fa06112a5565b15610fae57610fad611688565b5b565b6000806000809054906101000a900473ffffffffffffffffffffffffffffffffffffffff1673ffffffffffffffffffffffffffffffffffffffff163373ffffffffffffffffffffffffffffffffffffffff1614151561100e57600080fd5b6110166112a5565b151561102157600080fd5b60008373ffffffffffffffffffffffffffffffffffffffff1614156110bd576000809054906101000a900473ffffffffffffffffffffffffffffffffffffffff1673ffffffffffffffffffffffffffffffffffffffff166108fc3073ffffffffffffffffffffffffffffffffffffffff16319081150290604051600060405180830381858888f1935050505015156110b857600080fd5b6112a0565b8291508173ffffffffffffffffffffffffffffffffffffffff166370a08231306000604051602001526040518263ffffffff167c0100000000000000000000000000000000000000000000000000000000028152600401808273ffffffffffffffffffffffffffffffffffffffff1673ffffffffffffffffffffffffffffffffffffffff168152602001915050602060405180830381600087803b151561116357600080fd5b6102c65a03f1151561117457600080fd5b5050506040518051905090508173ffffffffffffffffffffffffffffffffffffffff1663a9059cbb6000809054906101000a900473ffffffffffffffffffffffffffffffffffffffff16836000604051602001526040518363ffffffff167c0100000000000000000000000000000000000000000000000000000000028152600401808373ffffffffffffffffffffffffffffffffffffffff1673ffffffffffffffffffffffffffffffffffffffff16815260200182815260200192505050602060405180830381600087803b151561124c57600080fd5b6102c65a03f1151561125d57600080fd5b50505060405180519050507ff3d11fa0b0c8ecc03cfb3e9730f3e26aab44a500bbd00c264dd40f331fd68a48816040518082815260200191505060405180910390a15b505050565b6000806000600360009054906101000a900460ff16156112c857600192506112ec565b600454600954101591506007546112dd611680565b11905080806112e95750815b92505b505090565b6000809054906101000a900473ffffffffffffffffffffffffffffffffffffffff1673ffffffffffffffffffffffffffffffffffffffff163373ffffffffffffffffffffffffffffffffffffffff1614151561134c57600080fd5b600073ffffffffffffffffffffffffffffffffffffffff168173ffffffffffffffffffffffffffffffffffffffff161415151561138857600080fd5b8073ffffffffffffffffffffffffffffffffffffffff166000809054906101000a900473ffffffffffffffffffffffffffffffffffffffff1673ffffffffffffffffffffffffffffffffffffffff167f8be0079c531659141344cd1fd0a4f28419497f9722a3daafe3b4186f6b6457e060405160405180910390a3806000806101000a81548173ffffffffffffffffffffffffffffffffffffffff021916908373ffffffffffffffffffffffffffffffffffffffff16021790555050565b600560009054906101000a900473ffffffffffffffffffffffffffffffffffffffff1681565b60008060008061147a610f98565b600360009054906101000a900460ff1615151561149657600080fd5b6006546114a1611680565b101580156114b857506007546114b5611680565b11155b9250600034141591506000600560009054906101000a900473ffffffffffffffffffffffffffffffffffffffff1673ffffffffffffffffffffffffffffffffffffffff166370a08231306000604051602001526040518263ffffffff167c0100000000000000000000000000000000000000000000000000000000028152600401808273ffffffffffffffffffffffffffffffffffffffff1673ffffffffffffffffffffffffffffffffffffffff168152602001915050602060405180830381600087803b151561158857600080fd5b6102c65a03f1151561159957600080fd5b505050604051805190501190508280156115b05750815b80156115b95750805b935050505090565b60008282111515156115cf57fe5b818303905092915050565b60006115f66115e76109e8565b836117de90919063ffffffff16565b9050919050565b600080828401905083811015151561161157fe5b8091505092915050565b600860009054906101000a900473ffffffffffffffffffffffffffffffffffffffff1673ffffffffffffffffffffffffffffffffffffffff166108fc829081150290604051600060405180830381858888f19350505050151561167d57600080fd5b50565b600042905090565b600360009054906101000a900460ff161515156116a457600080fd5b7f6823b073d48d6e3a7d385eeb601452d680e74bb46afe3255a7d778f3a9b1768160405160405180910390a16001600360006101000a81548160ff021916908315150217905550600560009054906101000a900473ffffffffffffffffffffffffffffffffffffffff1673ffffffffffffffffffffffffffffffffffffffff1663f2fde38b6000809054906101000a900473ffffffffffffffffffffffffffffffffffffffff166040518263ffffffff167c0100000000000000000000000000000000000000000000000000000000028152600401808273ffffffffffffffffffffffffffffffffffffffff1673ffffffffffffffffffffffffffffffffffffffff168152602001915050600060405180830381600087803b15156117c857600080fd5b6102c65a03f115156117d957600080fd5b505050565b600080828402905060008414806117ff57508284828115156117fc57fe5b04145b151561180757fe5b80915050929150505600a165627a7a72305820fdecf99fb4240902d3abe818be934db5df2d8b295ad0d7f00cf5c91d1642b5f50029",
  "source": "pragma solidity ^0.4.18;\n\nimport 'zeppelin-solidity/contracts/ownership/Ownable.sol';\nimport 'zeppelin-solidity/contracts/math/SafeMath.sol';\nimport 'zeppelin-solidity/contracts/token/ERC20Basic.sol';\nimport './MenloToken.sol';\n\n/**\n * @title MenloTokenSale\n * @dev Modified from OpenZeppelin's Crowdsale.sol\n * CappedCrowdsale.sol, and FinalizableCrowdsale.sol\n * Uses PausableToken rather than MintableToken.\n *\n * Requires that tokens for sale (entire supply minus team's portion) be deposited.\n */\ncontract MenloTokenSale is Ownable {\n  using SafeMath for uint256;\n\n  // Token allocations\n  mapping (address => uint256) public allocations;\n\n  // Whitelisted investors\n  mapping (address => bool) public whitelist;\n\n  // manual early close flag\n  bool public isFinalized = false;\n\n  // cap for crowdsale in wei\n  uint256 public cap;\n\n  // The token being sold\n  MenloToken public token;\n\n  // start and end timestamps where contributions are allowed (both inclusive)\n  uint256 public startTime;\n  uint256 public endTime;\n\n  // address where funds are collected\n  address public wallet;\n\n  // amount of raised money in wei\n  uint256 public weiRaised;\n\n  // Timestamps for the bonus periods, set in the constructor\n  uint256 private HOUR1;\n  uint256 private WEEK1;\n  uint256 private WEEK2;\n  uint256 private WEEK3;\n  uint256 private WEEK4;\n  uint256 private WEEK5;\n\n  /**\n   * event for token purchase logging\n   * @param purchaser who paid for the tokens\n   * @param beneficiary who got the tokens\n   * @param value weis paid for purchase\n   * @param amount amount of tokens purchased\n   */\n  event TokenPurchase(address indexed purchaser, address indexed beneficiary, uint256 value, uint256 amount);\n\n  /**\n   * event for token redemption logging\n   * @param beneficiary who got the tokens\n   * @param amount amount of tokens redeemed\n   */\n  event TokenRedeem(address indexed beneficiary, uint256 amount);\n\n  // termination early or otherwise\n  event Finalized();\n\n  /**\n   * event refund of excess ETH if purchase is above the cap\n   * @param amount amount of ETH (in wei) refunded\n   */\n  event Refund(address indexed purchaser, address indexed beneficiary, uint256 amount);\n\n  function MenloTokenSale(\n      address _token,\n      uint256 _startTime,\n      uint256 _endTime,\n      uint256 _cap,\n      address _wallet\n  ) public {\n    require(_startTime >= getBlockTimestamp());\n    require(_endTime >= _startTime);\n    require(_cap > 0);\n    require(_cap <= MenloToken(_token).PUBLICSALE_SUPPLY());\n    require(_wallet != 0x0);\n    require(_token != 0x0);\n\n    token = MenloToken(_token);\n    startTime = _startTime;\n    endTime = _endTime;\n    cap = _cap;\n    wallet = _wallet;\n    HOUR1 = startTime + 1 hours;\n    WEEK1 = HOUR1 + 1 weeks;\n    WEEK2 = WEEK1 + 1 weeks;\n    WEEK3 = WEEK2 + 1 weeks;\n    WEEK4 = WEEK3 + 1 weeks;\n    WEEK5 = WEEK4 + 1 years;\n  }\n\n  // fallback function can be used to buy tokens\n  function () public payable {\n    buyTokens(msg.sender);\n  }\n\n  // Hour 1: 1 ETH = 6,500 MET (30% Bonus)\n  // Week 1: 1 ETH = 6,000 MET (20% Bonus)\n  // Week 2: 1 ETH = 5,750 MET (15% Bonus)\n  // Week 3: 1 ETH = 5,500 MET (10% Bonus)\n  // Week 4: 1 ETH = 5,250 MET (5% Bonus)\n  function calculateBonusRate() public view returns (uint256) {\n    uint256 bonusRate = 5000;\n\n    uint256 currentTime = getBlockTimestamp();\n    if (currentTime > startTime && currentTime <= HOUR1) {\n      bonusRate =  6500; //\n    } else if (currentTime <= WEEK1) {\n      bonusRate =  6000; // after 1 hour\n    } else if (currentTime <= WEEK2) {\n      bonusRate =  5750; // after 1 week\n    } else if (currentTime <= WEEK3) {\n      bonusRate =  5500; // after 2 weeks\n    } else if (currentTime <= WEEK4) {\n      bonusRate =  5250; // after 3 weeks\n    } else if (currentTime <= WEEK5) {\n      bonusRate = 5000; // after 4 weeks\n    }\n    return bonusRate;\n  }\n\n  /// @notice interface for founders to whitelist investors\n  /// @param _addresses array of investors\n  /// @param _status enable or disable\n  function whitelistAddresses(address[] _addresses, bool _status) public onlyOwner {\n    for (uint256 i = 0; i < _addresses.length; i++) {\n        address investorAddress = _addresses[i];\n        if (whitelist[investorAddress] == _status) {\n          continue;\n        }\n        whitelist[investorAddress] = _status;\n    }\n   }\n\n   function ethToTokens(uint256 ethAmount) internal view returns (uint256) {\n    return ethAmount.mul(calculateBonusRate());\n   }\n\n  // low level token purchase function\n  // caution: tokens must be redeemed by beneficiary address\n  function buyTokens(address beneficiary) public payable {\n    require(whitelist[beneficiary]);\n    require(beneficiary != 0x0);\n    require(validPurchase());\n\n    uint256 weiAmount = msg.value;\n\n    uint256 remainingToFund = cap.sub(weiRaised);\n    if (weiAmount > remainingToFund) {\n      weiAmount = remainingToFund;\n    }\n    uint256 weiToReturn = msg.value.sub(weiAmount);\n    uint256 tokens = ethToTokens(weiAmount);\n\n    token.unpause();\n    weiRaised = weiRaised.add(weiAmount);\n\n    forwardFunds(weiAmount);\n    if (weiToReturn > 0) {\n      msg.sender.transfer(weiToReturn);\n      Refund(msg.sender, beneficiary, weiToReturn);\n    }\n    // send tokens to purchaser\n    TokenPurchase(msg.sender, beneficiary, weiAmount, tokens);\n    token.transfer(beneficiary, tokens);\n    token.pause();\n    TokenRedeem(beneficiary, tokens);\n    if (weiRaised == cap) {\n      checkFinalize();\n    }\n  }\n\n  // send ether to the fund collection wallet\n  // override to create custom fund forwarding mechanisms\n  function forwardFunds(uint256 amount) internal {\n    wallet.transfer(amount);\n  }\n\n  function checkFinalize() public {\n    if (hasEnded()) {\n      finalize();\n    }\n  }\n\n  // @return true if the transaction can buy tokens\n  function validPurchase() internal returns (bool) {\n    checkFinalize();\n    require(!isFinalized);\n    bool withinPeriod = getBlockTimestamp() >= startTime && getBlockTimestamp() <= endTime;\n    bool nonZeroPurchase = msg.value != 0;\n    bool contractHasTokens = token.balanceOf(this) > 0;\n    return withinPeriod && nonZeroPurchase && contractHasTokens;\n  }\n\n  // @return true if crowdsale event has ended or cap reached\n  function hasEnded() public constant returns (bool) {\n    if (isFinalized) {\n      return true;\n    }\n    bool capReached = weiRaised >= cap;\n    bool passedEndTime = getBlockTimestamp() > endTime;\n    return passedEndTime || capReached;\n  }\n\n  function getBlockTimestamp() internal view returns (uint256) {\n    return block.timestamp;\n  }\n\n  function emergencyFinalize() public onlyOwner {\n    finalize();\n  }\n  // @dev does not require that crowdsale `hasEnded()` to leave safegaurd\n  // in place if ETH rises in price too much during crowdsale.\n  // Allows team to close early if cap is exceeded in USD in this event.\n  function finalize() internal {\n    require(!isFinalized);\n    Finalized();\n    isFinalized = true;\n    token.transferOwnership(owner);\n  }\n\n  // Allows the owner to take back the tokens that are assigned to the sale contract.\n  event TokensRefund(uint256 _amount);\n  function refund() external onlyOwner returns (bool) {\n      require(hasEnded());\n      uint256 tokens = token.balanceOf(address(this));\n\n      if (tokens == 0) {\n         return false;\n      }\n\n      require(token.transfer(owner, tokens));\n\n      TokensRefund(tokens);\n\n      return true;\n   }\n\n  function claimTokens(address _token) public onlyOwner {\n    require(hasEnded());\n    if (_token == 0x0) {\n        owner.transfer(this.balance);\n        return;\n    }\n\n    ERC20Basic refundToken = ERC20Basic(_token);\n    uint256 balance = refundToken.balanceOf(this);\n    refundToken.transfer(owner, balance);\n    TokensRefund(balance);\n  }\n}\n",
  "sourcePath": "/home/git/local/menlo-contracts/contracts/MenloTokenSale.sol",
  "compiler": {
    "name": "solc",
    "version": "0.4.19+commit.c4cbbb05.Emscripten.clang"
  },
  "schemaVersion": "1.0.1",
  "updatedAt": "2018-02-13T10:50:20.647Z"
}